{
	"contracts/TryCatch.sol": {
		"TryCatch": {
			"abi": [
				{
					"inputs": [
						{
							"internalType": "string",
							"name": "",
							"type": "string"
						}
					],
					"name": "ErrorBytes",
					"type": "error"
				},
				{
					"inputs": [
						{
							"internalType": "address",
							"name": "",
							"type": "address"
						}
					],
					"name": "balanceReceived",
					"outputs": [
						{
							"internalType": "uint256",
							"name": "",
							"type": "uint256"
						}
					],
					"stateMutability": "view",
					"type": "function"
				},
				{
					"inputs": [],
					"name": "receiveMoney",
					"outputs": [],
					"stateMutability": "payable",
					"type": "function"
				},
				{
					"inputs": [],
					"name": "throwErrorFunction",
					"outputs": [],
					"stateMutability": "pure",
					"type": "function"
				},
				{
					"inputs": [
						{
							"internalType": "address payable",
							"name": "_to",
							"type": "address"
						},
						{
							"internalType": "uint8",
							"name": "_amount",
							"type": "uint8"
						}
					],
					"name": "withdrawMoney",
					"outputs": [],
					"stateMutability": "nonpayable",
					"type": "function"
				}
			],
			"devdoc": {
				"kind": "dev",
				"methods": {},
				"version": 1
			},
			"evm": {
				"assembly": "    /* \"contracts/TryCatch.sol\":62:789  contract TryCatch{... */\n  mstore(0x40, 0x80)\n  callvalue\n  dup1\n  iszero\n  tag_1\n  jumpi\n  0x00\n  dup1\n  revert\ntag_1:\n  pop\n  dataSize(sub_0)\n  dup1\n  dataOffset(sub_0)\n  0x00\n  codecopy\n  0x00\n  return\nstop\n\nsub_0: assembly {\n        /* \"contracts/TryCatch.sol\":62:789  contract TryCatch{... */\n      mstore(0x40, 0x80)\n      jumpi(tag_1, lt(calldatasize, 0x04))\n      shr(0xe0, calldataload(0x00))\n      dup1\n      0x67c114b8\n      eq\n      tag_2\n      jumpi\n      dup1\n      0x6d26ec18\n      eq\n      tag_3\n      jumpi\n      dup1\n      0xd18a42e1\n      eq\n      tag_4\n      jumpi\n      dup1\n      0xf486f96e\n      eq\n      tag_5\n      jumpi\n    tag_1:\n      0x00\n      dup1\n      revert\n        /* \"contracts/TryCatch.sol\":335:580  function withdrawMoney(address payable _to, uint8 _amount) public{... */\n    tag_2:\n      callvalue\n      dup1\n      iszero\n      tag_6\n      jumpi\n      0x00\n      dup1\n      revert\n    tag_6:\n      pop\n      tag_7\n      0x04\n      dup1\n      calldatasize\n      sub\n      dup2\n      add\n      swap1\n      tag_8\n      swap2\n      swap1\n      tag_9\n      jump\t// in\n    tag_8:\n      tag_10\n      jump\t// in\n    tag_7:\n      stop\n        /* \"contracts/TryCatch.sol\":177:329  function receiveMoney() public payable{... */\n    tag_3:\n      tag_11\n      tag_12\n      jump\t// in\n    tag_11:\n      stop\n        /* \"contracts/TryCatch.sol\":121:168  mapping(address => uint) public balanceReceived */\n    tag_4:\n      callvalue\n      dup1\n      iszero\n      tag_13\n      jumpi\n      0x00\n      dup1\n      revert\n    tag_13:\n      pop\n      tag_14\n      0x04\n      dup1\n      calldatasize\n      sub\n      dup2\n      add\n      swap1\n      tag_15\n      swap2\n      swap1\n      tag_16\n      jump\t// in\n    tag_15:\n      tag_17\n      jump\t// in\n    tag_14:\n      mload(0x40)\n      tag_18\n      swap2\n      swap1\n      tag_19\n      jump\t// in\n    tag_18:\n      mload(0x40)\n      dup1\n      swap2\n      sub\n      swap1\n      return\n        /* \"contracts/TryCatch.sol\":588:782  function throwErrorFunction() public pure{... */\n    tag_5:\n      callvalue\n      dup1\n      iszero\n      tag_20\n      jumpi\n      0x00\n      dup1\n      revert\n    tag_20:\n      pop\n      tag_21\n      tag_22\n      jump\t// in\n    tag_21:\n      stop\n        /* \"contracts/TryCatch.sol\":335:580  function withdrawMoney(address payable _to, uint8 _amount) public{... */\n    tag_10:\n        /* \"contracts/TryCatch.sol\":430:445  balanceReceived */\n      0x00\n        /* \"contracts/TryCatch.sol\":430:457  balanceReceived[msg.sender] */\n      dup1\n        /* \"contracts/TryCatch.sol\":446:456  msg.sender */\n      caller\n        /* \"contracts/TryCatch.sol\":430:457  balanceReceived[msg.sender] */\n      0xffffffffffffffffffffffffffffffffffffffff\n      and\n      0xffffffffffffffffffffffffffffffffffffffff\n      and\n      dup2\n      mstore\n      0x20\n      add\n      swap1\n      dup2\n      mstore\n      0x20\n      add\n      0x00\n      keccak256\n      sload\n        /* \"contracts/TryCatch.sol\":419:426  _amount */\n      dup2\n        /* \"contracts/TryCatch.sol\":419:457  _amount <= balanceReceived[msg.sender] */\n      0xff\n      and\n      gt\n      iszero\n        /* \"contracts/TryCatch.sol\":411:491  require(_amount <= balanceReceived[msg.sender], \"Not enough founds, reverting!\") */\n      tag_24\n      jumpi\n      mload(0x40)\n      0x08c379a000000000000000000000000000000000000000000000000000000000\n      dup2\n      mstore\n      0x04\n      add\n      tag_25\n      swap1\n      tag_26\n      jump\t// in\n    tag_25:\n      mload(0x40)\n      dup1\n      swap2\n      sub\n      swap1\n      revert\n    tag_24:\n        /* \"contracts/TryCatch.sol\":533:540  _amount */\n      dup1\n        /* \"contracts/TryCatch.sol\":502:540  balanceReceived[msg.sender] -= _amount */\n      0xff\n      and\n        /* \"contracts/TryCatch.sol\":502:517  balanceReceived */\n      0x00\n        /* \"contracts/TryCatch.sol\":502:529  balanceReceived[msg.sender] */\n      dup1\n        /* \"contracts/TryCatch.sol\":518:528  msg.sender */\n      caller\n        /* \"contracts/TryCatch.sol\":502:529  balanceReceived[msg.sender] */\n      0xffffffffffffffffffffffffffffffffffffffff\n      and\n      0xffffffffffffffffffffffffffffffffffffffff\n      and\n      dup2\n      mstore\n      0x20\n      add\n      swap1\n      dup2\n      mstore\n      0x20\n      add\n      0x00\n      keccak256\n      0x00\n        /* \"contracts/TryCatch.sol\":502:540  balanceReceived[msg.sender] -= _amount */\n      dup3\n      dup3\n      sload\n      tag_27\n      swap2\n      swap1\n      tag_28\n      jump\t// in\n    tag_27:\n      swap3\n      pop\n      pop\n      dup2\n      swap1\n      sstore\n      pop\n        /* \"contracts/TryCatch.sol\":551:554  _to */\n      dup2\n        /* \"contracts/TryCatch.sol\":551:563  _to.transfer */\n      0xffffffffffffffffffffffffffffffffffffffff\n      and\n        /* \"contracts/TryCatch.sol\":551:572  _to.transfer(_amount) */\n      0x08fc\n        /* \"contracts/TryCatch.sol\":564:571  _amount */\n      dup3\n        /* \"contracts/TryCatch.sol\":551:572  _to.transfer(_amount) */\n      0xff\n      and\n      swap1\n      dup2\n      iszero\n      mul\n      swap1\n      mload(0x40)\n      0x00\n      mload(0x40)\n      dup1\n      dup4\n      sub\n      dup2\n      dup6\n      dup9\n      dup9\n      call\n      swap4\n      pop\n      pop\n      pop\n      pop\n      iszero\n      dup1\n      iszero\n      tag_30\n      jumpi\n      returndatasize\n      0x00\n      dup1\n      returndatacopy\n      revert(0x00, returndatasize)\n    tag_30:\n      pop\n        /* \"contracts/TryCatch.sol\":335:580  function withdrawMoney(address payable _to, uint8 _amount) public{... */\n      pop\n      pop\n      jump\t// out\n        /* \"contracts/TryCatch.sol\":177:329  function receiveMoney() public payable{... */\n    tag_12:\n        /* \"contracts/TryCatch.sol\":252:261  msg.value */\n      callvalue\n        /* \"contracts/TryCatch.sol\":233:262  msg.value == uint8(msg.value) */\n      0xff\n      and\n        /* \"contracts/TryCatch.sol\":233:242  msg.value */\n      callvalue\n        /* \"contracts/TryCatch.sol\":233:262  msg.value == uint8(msg.value) */\n      eq\n        /* \"contracts/TryCatch.sol\":226:263  assert(msg.value == uint8(msg.value)) */\n      tag_32\n      jumpi\n      tag_33\n      tag_34\n      jump\t// in\n    tag_33:\n    tag_32:\n        /* \"contracts/TryCatch.sol\":311:320  msg.value */\n      callvalue\n        /* \"contracts/TryCatch.sol\":274:321  balanceReceived[msg.sender] += uint8(msg.value) */\n      0xff\n      and\n        /* \"contracts/TryCatch.sol\":274:289  balanceReceived */\n      0x00\n        /* \"contracts/TryCatch.sol\":274:301  balanceReceived[msg.sender] */\n      dup1\n        /* \"contracts/TryCatch.sol\":290:300  msg.sender */\n      caller\n        /* \"contracts/TryCatch.sol\":274:301  balanceReceived[msg.sender] */\n      0xffffffffffffffffffffffffffffffffffffffff\n      and\n      0xffffffffffffffffffffffffffffffffffffffff\n      and\n      dup2\n      mstore\n      0x20\n      add\n      swap1\n      dup2\n      mstore\n      0x20\n      add\n      0x00\n      keccak256\n      0x00\n        /* \"contracts/TryCatch.sol\":274:321  balanceReceived[msg.sender] += uint8(msg.value) */\n      dup3\n      dup3\n      sload\n      tag_35\n      swap2\n      swap1\n      tag_36\n      jump\t// in\n    tag_35:\n      swap3\n      pop\n      pop\n      dup2\n      swap1\n      sstore\n      pop\n        /* \"contracts/TryCatch.sol\":177:329  function receiveMoney() public payable{... */\n      jump\t// out\n        /* \"contracts/TryCatch.sol\":121:168  mapping(address => uint) public balanceReceived */\n    tag_17:\n      mstore(0x20, 0x00)\n      dup1\n      0x00\n      mstore\n      keccak256(0x00, 0x40)\n      0x00\n      swap2\n      pop\n      swap1\n      pop\n      sload\n      dup2\n      jump\t// out\n        /* \"contracts/TryCatch.sol\":588:782  function throwErrorFunction() public pure{... */\n    tag_22:\n        /* \"contracts/TryCatch.sol\":710:774  ErrorBytes(\"Not Catchable error, but reverting everything here\") */\n      mload(0x40)\n      0x2c5c32dd00000000000000000000000000000000000000000000000000000000\n      dup2\n      mstore\n      0x04\n      add\n      tag_38\n      swap1\n      tag_39\n      jump\t// in\n    tag_38:\n      mload(0x40)\n      dup1\n      swap2\n      sub\n      swap1\n      revert\n        /* \"#utility.yul\":88:205   */\n    tag_41:\n        /* \"#utility.yul\":197:198   */\n      0x00\n        /* \"#utility.yul\":194:195   */\n      dup1\n        /* \"#utility.yul\":187:199   */\n      revert\n        /* \"#utility.yul\":334:460   */\n    tag_43:\n        /* \"#utility.yul\":371:378   */\n      0x00\n        /* \"#utility.yul\":411:453   */\n      0xffffffffffffffffffffffffffffffffffffffff\n        /* \"#utility.yul\":404:409   */\n      dup3\n        /* \"#utility.yul\":400:454   */\n      and\n        /* \"#utility.yul\":389:454   */\n      swap1\n      pop\n        /* \"#utility.yul\":334:460   */\n      swap2\n      swap1\n      pop\n      jump\t// out\n        /* \"#utility.yul\":466:570   */\n    tag_44:\n        /* \"#utility.yul\":511:518   */\n      0x00\n        /* \"#utility.yul\":540:564   */\n      tag_67\n        /* \"#utility.yul\":558:563   */\n      dup3\n        /* \"#utility.yul\":540:564   */\n      tag_43\n      jump\t// in\n    tag_67:\n        /* \"#utility.yul\":529:564   */\n      swap1\n      pop\n        /* \"#utility.yul\":466:570   */\n      swap2\n      swap1\n      pop\n      jump\t// out\n        /* \"#utility.yul\":576:714   */\n    tag_45:\n        /* \"#utility.yul\":657:689   */\n      tag_69\n        /* \"#utility.yul\":683:688   */\n      dup2\n        /* \"#utility.yul\":657:689   */\n      tag_44\n      jump\t// in\n    tag_69:\n        /* \"#utility.yul\":650:655   */\n      dup2\n        /* \"#utility.yul\":647:690   */\n      eq\n        /* \"#utility.yul\":637:708   */\n      tag_70\n      jumpi\n        /* \"#utility.yul\":704:705   */\n      0x00\n        /* \"#utility.yul\":701:702   */\n      dup1\n        /* \"#utility.yul\":694:706   */\n      revert\n        /* \"#utility.yul\":637:708   */\n    tag_70:\n        /* \"#utility.yul\":576:714   */\n      pop\n      jump\t// out\n        /* \"#utility.yul\":720:875   */\n    tag_46:\n        /* \"#utility.yul\":774:779   */\n      0x00\n        /* \"#utility.yul\":812:818   */\n      dup2\n        /* \"#utility.yul\":799:819   */\n      calldataload\n        /* \"#utility.yul\":790:819   */\n      swap1\n      pop\n        /* \"#utility.yul\":828:869   */\n      tag_72\n        /* \"#utility.yul\":863:868   */\n      dup2\n        /* \"#utility.yul\":828:869   */\n      tag_45\n      jump\t// in\n    tag_72:\n        /* \"#utility.yul\":720:875   */\n      swap3\n      swap2\n      pop\n      pop\n      jump\t// out\n        /* \"#utility.yul\":881:967   */\n    tag_47:\n        /* \"#utility.yul\":916:923   */\n      0x00\n        /* \"#utility.yul\":956:960   */\n      0xff\n        /* \"#utility.yul\":949:954   */\n      dup3\n        /* \"#utility.yul\":945:961   */\n      and\n        /* \"#utility.yul\":934:961   */\n      swap1\n      pop\n        /* \"#utility.yul\":881:967   */\n      swap2\n      swap1\n      pop\n      jump\t// out\n        /* \"#utility.yul\":973:1091   */\n    tag_48:\n        /* \"#utility.yul\":1044:1066   */\n      tag_75\n        /* \"#utility.yul\":1060:1065   */\n      dup2\n        /* \"#utility.yul\":1044:1066   */\n      tag_47\n      jump\t// in\n    tag_75:\n        /* \"#utility.yul\":1037:1042   */\n      dup2\n        /* \"#utility.yul\":1034:1067   */\n      eq\n        /* \"#utility.yul\":1024:1085   */\n      tag_76\n      jumpi\n        /* \"#utility.yul\":1081:1082   */\n      0x00\n        /* \"#utility.yul\":1078:1079   */\n      dup1\n        /* \"#utility.yul\":1071:1083   */\n      revert\n        /* \"#utility.yul\":1024:1085   */\n    tag_76:\n        /* \"#utility.yul\":973:1091   */\n      pop\n      jump\t// out\n        /* \"#utility.yul\":1097:1232   */\n    tag_49:\n        /* \"#utility.yul\":1141:1146   */\n      0x00\n        /* \"#utility.yul\":1179:1185   */\n      dup2\n        /* \"#utility.yul\":1166:1186   */\n      calldataload\n        /* \"#utility.yul\":1157:1186   */\n      swap1\n      pop\n        /* \"#utility.yul\":1195:1226   */\n      tag_78\n        /* \"#utility.yul\":1220:1225   */\n      dup2\n        /* \"#utility.yul\":1195:1226   */\n      tag_48\n      jump\t// in\n    tag_78:\n        /* \"#utility.yul\":1097:1232   */\n      swap3\n      swap2\n      pop\n      pop\n      jump\t// out\n        /* \"#utility.yul\":1238:1724   */\n    tag_9:\n        /* \"#utility.yul\":1312:1318   */\n      0x00\n        /* \"#utility.yul\":1320:1326   */\n      dup1\n        /* \"#utility.yul\":1369:1371   */\n      0x40\n        /* \"#utility.yul\":1357:1366   */\n      dup4\n        /* \"#utility.yul\":1348:1355   */\n      dup6\n        /* \"#utility.yul\":1344:1367   */\n      sub\n        /* \"#utility.yul\":1340:1372   */\n      slt\n        /* \"#utility.yul\":1337:1456   */\n      iszero\n      tag_80\n      jumpi\n        /* \"#utility.yul\":1375:1454   */\n      tag_81\n      tag_41\n      jump\t// in\n    tag_81:\n        /* \"#utility.yul\":1337:1456   */\n    tag_80:\n        /* \"#utility.yul\":1495:1496   */\n      0x00\n        /* \"#utility.yul\":1520:1581   */\n      tag_82\n        /* \"#utility.yul\":1573:1580   */\n      dup6\n        /* \"#utility.yul\":1564:1570   */\n      dup3\n        /* \"#utility.yul\":1553:1562   */\n      dup7\n        /* \"#utility.yul\":1549:1571   */\n      add\n        /* \"#utility.yul\":1520:1581   */\n      tag_46\n      jump\t// in\n    tag_82:\n        /* \"#utility.yul\":1510:1581   */\n      swap3\n      pop\n        /* \"#utility.yul\":1466:1591   */\n      pop\n        /* \"#utility.yul\":1630:1632   */\n      0x20\n        /* \"#utility.yul\":1656:1707   */\n      tag_83\n        /* \"#utility.yul\":1699:1706   */\n      dup6\n        /* \"#utility.yul\":1690:1696   */\n      dup3\n        /* \"#utility.yul\":1679:1688   */\n      dup7\n        /* \"#utility.yul\":1675:1697   */\n      add\n        /* \"#utility.yul\":1656:1707   */\n      tag_49\n      jump\t// in\n    tag_83:\n        /* \"#utility.yul\":1646:1707   */\n      swap2\n      pop\n        /* \"#utility.yul\":1601:1717   */\n      pop\n        /* \"#utility.yul\":1238:1724   */\n      swap3\n      pop\n      swap3\n      swap1\n      pop\n      jump\t// out\n        /* \"#utility.yul\":1730:1826   */\n    tag_50:\n        /* \"#utility.yul\":1767:1774   */\n      0x00\n        /* \"#utility.yul\":1796:1820   */\n      tag_85\n        /* \"#utility.yul\":1814:1819   */\n      dup3\n        /* \"#utility.yul\":1796:1820   */\n      tag_43\n      jump\t// in\n    tag_85:\n        /* \"#utility.yul\":1785:1820   */\n      swap1\n      pop\n        /* \"#utility.yul\":1730:1826   */\n      swap2\n      swap1\n      pop\n      jump\t// out\n        /* \"#utility.yul\":1832:1954   */\n    tag_51:\n        /* \"#utility.yul\":1905:1929   */\n      tag_87\n        /* \"#utility.yul\":1923:1928   */\n      dup2\n        /* \"#utility.yul\":1905:1929   */\n      tag_50\n      jump\t// in\n    tag_87:\n        /* \"#utility.yul\":1898:1903   */\n      dup2\n        /* \"#utility.yul\":1895:1930   */\n      eq\n        /* \"#utility.yul\":1885:1948   */\n      tag_88\n      jumpi\n        /* \"#utility.yul\":1944:1945   */\n      0x00\n        /* \"#utility.yul\":1941:1942   */\n      dup1\n        /* \"#utility.yul\":1934:1946   */\n      revert\n        /* \"#utility.yul\":1885:1948   */\n    tag_88:\n        /* \"#utility.yul\":1832:1954   */\n      pop\n      jump\t// out\n        /* \"#utility.yul\":1960:2099   */\n    tag_52:\n        /* \"#utility.yul\":2006:2011   */\n      0x00\n        /* \"#utility.yul\":2044:2050   */\n      dup2\n        /* \"#utility.yul\":2031:2051   */\n      calldataload\n        /* \"#utility.yul\":2022:2051   */\n      swap1\n      pop\n        /* \"#utility.yul\":2060:2093   */\n      tag_90\n        /* \"#utility.yul\":2087:2092   */\n      dup2\n        /* \"#utility.yul\":2060:2093   */\n      tag_51\n      jump\t// in\n    tag_90:\n        /* \"#utility.yul\":1960:2099   */\n      swap3\n      swap2\n      pop\n      pop\n      jump\t// out\n        /* \"#utility.yul\":2105:2434   */\n    tag_16:\n        /* \"#utility.yul\":2164:2170   */\n      0x00\n        /* \"#utility.yul\":2213:2215   */\n      0x20\n        /* \"#utility.yul\":2201:2210   */\n      dup3\n        /* \"#utility.yul\":2192:2199   */\n      dup5\n        /* \"#utility.yul\":2188:2211   */\n      sub\n        /* \"#utility.yul\":2184:2216   */\n      slt\n        /* \"#utility.yul\":2181:2300   */\n      iszero\n      tag_92\n      jumpi\n        /* \"#utility.yul\":2219:2298   */\n      tag_93\n      tag_41\n      jump\t// in\n    tag_93:\n        /* \"#utility.yul\":2181:2300   */\n    tag_92:\n        /* \"#utility.yul\":2339:2340   */\n      0x00\n        /* \"#utility.yul\":2364:2417   */\n      tag_94\n        /* \"#utility.yul\":2409:2416   */\n      dup5\n        /* \"#utility.yul\":2400:2406   */\n      dup3\n        /* \"#utility.yul\":2389:2398   */\n      dup6\n        /* \"#utility.yul\":2385:2407   */\n      add\n        /* \"#utility.yul\":2364:2417   */\n      tag_52\n      jump\t// in\n    tag_94:\n        /* \"#utility.yul\":2354:2417   */\n      swap2\n      pop\n        /* \"#utility.yul\":2310:2427   */\n      pop\n        /* \"#utility.yul\":2105:2434   */\n      swap3\n      swap2\n      pop\n      pop\n      jump\t// out\n        /* \"#utility.yul\":2440:2517   */\n    tag_53:\n        /* \"#utility.yul\":2477:2484   */\n      0x00\n        /* \"#utility.yul\":2506:2511   */\n      dup2\n        /* \"#utility.yul\":2495:2511   */\n      swap1\n      pop\n        /* \"#utility.yul\":2440:2517   */\n      swap2\n      swap1\n      pop\n      jump\t// out\n        /* \"#utility.yul\":2523:2641   */\n    tag_54:\n        /* \"#utility.yul\":2610:2634   */\n      tag_97\n        /* \"#utility.yul\":2628:2633   */\n      dup2\n        /* \"#utility.yul\":2610:2634   */\n      tag_53\n      jump\t// in\n    tag_97:\n        /* \"#utility.yul\":2605:2608   */\n      dup3\n        /* \"#utility.yul\":2598:2635   */\n      mstore\n        /* \"#utility.yul\":2523:2641   */\n      pop\n      pop\n      jump\t// out\n        /* \"#utility.yul\":2647:2869   */\n    tag_19:\n        /* \"#utility.yul\":2740:2744   */\n      0x00\n        /* \"#utility.yul\":2778:2780   */\n      0x20\n        /* \"#utility.yul\":2767:2776   */\n      dup3\n        /* \"#utility.yul\":2763:2781   */\n      add\n        /* \"#utility.yul\":2755:2781   */\n      swap1\n      pop\n        /* \"#utility.yul\":2791:2862   */\n      tag_99\n        /* \"#utility.yul\":2859:2860   */\n      0x00\n        /* \"#utility.yul\":2848:2857   */\n      dup4\n        /* \"#utility.yul\":2844:2861   */\n      add\n        /* \"#utility.yul\":2835:2841   */\n      dup5\n        /* \"#utility.yul\":2791:2862   */\n      tag_54\n      jump\t// in\n    tag_99:\n        /* \"#utility.yul\":2647:2869   */\n      swap3\n      swap2\n      pop\n      pop\n      jump\t// out\n        /* \"#utility.yul\":2875:3044   */\n    tag_55:\n        /* \"#utility.yul\":2959:2970   */\n      0x00\n        /* \"#utility.yul\":2993:2999   */\n      dup3\n        /* \"#utility.yul\":2988:2991   */\n      dup3\n        /* \"#utility.yul\":2981:3000   */\n      mstore\n        /* \"#utility.yul\":3033:3037   */\n      0x20\n        /* \"#utility.yul\":3028:3031   */\n      dup3\n        /* \"#utility.yul\":3024:3038   */\n      add\n        /* \"#utility.yul\":3009:3038   */\n      swap1\n      pop\n        /* \"#utility.yul\":2875:3044   */\n      swap3\n      swap2\n      pop\n      pop\n      jump\t// out\n        /* \"#utility.yul\":3050:3229   */\n    tag_56:\n        /* \"#utility.yul\":3190:3221   */\n      0x4e6f7420656e6f75676820666f756e64732c20726576657274696e6721000000\n        /* \"#utility.yul\":3186:3187   */\n      0x00\n        /* \"#utility.yul\":3178:3184   */\n      dup3\n        /* \"#utility.yul\":3174:3188   */\n      add\n        /* \"#utility.yul\":3167:3222   */\n      mstore\n        /* \"#utility.yul\":3050:3229   */\n      pop\n      jump\t// out\n        /* \"#utility.yul\":3235:3601   */\n    tag_57:\n        /* \"#utility.yul\":3377:3380   */\n      0x00\n        /* \"#utility.yul\":3398:3465   */\n      tag_103\n        /* \"#utility.yul\":3462:3464   */\n      0x1d\n        /* \"#utility.yul\":3457:3460   */\n      dup4\n        /* \"#utility.yul\":3398:3465   */\n      tag_55\n      jump\t// in\n    tag_103:\n        /* \"#utility.yul\":3391:3465   */\n      swap2\n      pop\n        /* \"#utility.yul\":3474:3567   */\n      tag_104\n        /* \"#utility.yul\":3563:3566   */\n      dup3\n        /* \"#utility.yul\":3474:3567   */\n      tag_56\n      jump\t// in\n    tag_104:\n        /* \"#utility.yul\":3592:3594   */\n      0x20\n        /* \"#utility.yul\":3587:3590   */\n      dup3\n        /* \"#utility.yul\":3583:3595   */\n      add\n        /* \"#utility.yul\":3576:3595   */\n      swap1\n      pop\n        /* \"#utility.yul\":3235:3601   */\n      swap2\n      swap1\n      pop\n      jump\t// out\n        /* \"#utility.yul\":3607:4026   */\n    tag_26:\n        /* \"#utility.yul\":3773:3777   */\n      0x00\n        /* \"#utility.yul\":3811:3813   */\n      0x20\n        /* \"#utility.yul\":3800:3809   */\n      dup3\n        /* \"#utility.yul\":3796:3814   */\n      add\n        /* \"#utility.yul\":3788:3814   */\n      swap1\n      pop\n        /* \"#utility.yul\":3860:3869   */\n      dup2\n        /* \"#utility.yul\":3854:3858   */\n      dup2\n        /* \"#utility.yul\":3850:3870   */\n      sub\n        /* \"#utility.yul\":3846:3847   */\n      0x00\n        /* \"#utility.yul\":3835:3844   */\n      dup4\n        /* \"#utility.yul\":3831:3848   */\n      add\n        /* \"#utility.yul\":3824:3871   */\n      mstore\n        /* \"#utility.yul\":3888:4019   */\n      tag_106\n        /* \"#utility.yul\":4014:4018   */\n      dup2\n        /* \"#utility.yul\":3888:4019   */\n      tag_57\n      jump\t// in\n    tag_106:\n        /* \"#utility.yul\":3880:4019   */\n      swap1\n      pop\n        /* \"#utility.yul\":3607:4026   */\n      swap2\n      swap1\n      pop\n      jump\t// out\n        /* \"#utility.yul\":4032:4212   */\n    tag_58:\n        /* \"#utility.yul\":4080:4157   */\n      0x4e487b7100000000000000000000000000000000000000000000000000000000\n        /* \"#utility.yul\":4077:4078   */\n      0x00\n        /* \"#utility.yul\":4070:4158   */\n      mstore\n        /* \"#utility.yul\":4177:4181   */\n      0x11\n        /* \"#utility.yul\":4174:4175   */\n      0x04\n        /* \"#utility.yul\":4167:4182   */\n      mstore\n        /* \"#utility.yul\":4201:4205   */\n      0x24\n        /* \"#utility.yul\":4198:4199   */\n      0x00\n        /* \"#utility.yul\":4191:4206   */\n      revert\n        /* \"#utility.yul\":4218:4412   */\n    tag_28:\n        /* \"#utility.yul\":4258:4262   */\n      0x00\n        /* \"#utility.yul\":4278:4298   */\n      tag_109\n        /* \"#utility.yul\":4296:4297   */\n      dup3\n        /* \"#utility.yul\":4278:4298   */\n      tag_53\n      jump\t// in\n    tag_109:\n        /* \"#utility.yul\":4273:4298   */\n      swap2\n      pop\n        /* \"#utility.yul\":4312:4332   */\n      tag_110\n        /* \"#utility.yul\":4330:4331   */\n      dup4\n        /* \"#utility.yul\":4312:4332   */\n      tag_53\n      jump\t// in\n    tag_110:\n        /* \"#utility.yul\":4307:4332   */\n      swap3\n      pop\n        /* \"#utility.yul\":4356:4357   */\n      dup3\n        /* \"#utility.yul\":4353:4354   */\n      dup3\n        /* \"#utility.yul\":4349:4358   */\n      sub\n        /* \"#utility.yul\":4341:4358   */\n      swap1\n      pop\n        /* \"#utility.yul\":4380:4381   */\n      dup2\n        /* \"#utility.yul\":4374:4378   */\n      dup2\n        /* \"#utility.yul\":4371:4382   */\n      gt\n        /* \"#utility.yul\":4368:4405   */\n      iszero\n      tag_111\n      jumpi\n        /* \"#utility.yul\":4385:4403   */\n      tag_112\n      tag_58\n      jump\t// in\n    tag_112:\n        /* \"#utility.yul\":4368:4405   */\n    tag_111:\n        /* \"#utility.yul\":4218:4412   */\n      swap3\n      swap2\n      pop\n      pop\n      jump\t// out\n        /* \"#utility.yul\":4418:4598   */\n    tag_34:\n        /* \"#utility.yul\":4466:4543   */\n      0x4e487b7100000000000000000000000000000000000000000000000000000000\n        /* \"#utility.yul\":4463:4464   */\n      0x00\n        /* \"#utility.yul\":4456:4544   */\n      mstore\n        /* \"#utility.yul\":4563:4567   */\n      0x01\n        /* \"#utility.yul\":4560:4561   */\n      0x04\n        /* \"#utility.yul\":4553:4568   */\n      mstore\n        /* \"#utility.yul\":4587:4591   */\n      0x24\n        /* \"#utility.yul\":4584:4585   */\n      0x00\n        /* \"#utility.yul\":4577:4592   */\n      revert\n        /* \"#utility.yul\":4604:4795   */\n    tag_36:\n        /* \"#utility.yul\":4644:4647   */\n      0x00\n        /* \"#utility.yul\":4663:4683   */\n      tag_115\n        /* \"#utility.yul\":4681:4682   */\n      dup3\n        /* \"#utility.yul\":4663:4683   */\n      tag_53\n      jump\t// in\n    tag_115:\n        /* \"#utility.yul\":4658:4683   */\n      swap2\n      pop\n        /* \"#utility.yul\":4697:4717   */\n      tag_116\n        /* \"#utility.yul\":4715:4716   */\n      dup4\n        /* \"#utility.yul\":4697:4717   */\n      tag_53\n      jump\t// in\n    tag_116:\n        /* \"#utility.yul\":4692:4717   */\n      swap3\n      pop\n        /* \"#utility.yul\":4740:4741   */\n      dup3\n        /* \"#utility.yul\":4737:4738   */\n      dup3\n        /* \"#utility.yul\":4733:4742   */\n      add\n        /* \"#utility.yul\":4726:4742   */\n      swap1\n      pop\n        /* \"#utility.yul\":4761:4764   */\n      dup1\n        /* \"#utility.yul\":4758:4759   */\n      dup3\n        /* \"#utility.yul\":4755:4765   */\n      gt\n        /* \"#utility.yul\":4752:4788   */\n      iszero\n      tag_117\n      jumpi\n        /* \"#utility.yul\":4768:4786   */\n      tag_118\n      tag_58\n      jump\t// in\n    tag_118:\n        /* \"#utility.yul\":4752:4788   */\n    tag_117:\n        /* \"#utility.yul\":4604:4795   */\n      swap3\n      swap2\n      pop\n      pop\n      jump\t// out\n        /* \"#utility.yul\":4801:5038   */\n    tag_59:\n        /* \"#utility.yul\":4941:4975   */\n      0x4e6f7420436174636861626c65206572726f722c206275742072657665727469\n        /* \"#utility.yul\":4937:4938   */\n      0x00\n        /* \"#utility.yul\":4929:4935   */\n      dup3\n        /* \"#utility.yul\":4925:4939   */\n      add\n        /* \"#utility.yul\":4918:4976   */\n      mstore\n        /* \"#utility.yul\":5010:5030   */\n      0x6e672065766572797468696e6720686572650000000000000000000000000000\n        /* \"#utility.yul\":5005:5007   */\n      0x20\n        /* \"#utility.yul\":4997:5003   */\n      dup3\n        /* \"#utility.yul\":4993:5008   */\n      add\n        /* \"#utility.yul\":4986:5031   */\n      mstore\n        /* \"#utility.yul\":4801:5038   */\n      pop\n      jump\t// out\n        /* \"#utility.yul\":5044:5410   */\n    tag_60:\n        /* \"#utility.yul\":5186:5189   */\n      0x00\n        /* \"#utility.yul\":5207:5274   */\n      tag_121\n        /* \"#utility.yul\":5271:5273   */\n      0x32\n        /* \"#utility.yul\":5266:5269   */\n      dup4\n        /* \"#utility.yul\":5207:5274   */\n      tag_55\n      jump\t// in\n    tag_121:\n        /* \"#utility.yul\":5200:5274   */\n      swap2\n      pop\n        /* \"#utility.yul\":5283:5376   */\n      tag_122\n        /* \"#utility.yul\":5372:5375   */\n      dup3\n        /* \"#utility.yul\":5283:5376   */\n      tag_59\n      jump\t// in\n    tag_122:\n        /* \"#utility.yul\":5401:5403   */\n      0x40\n        /* \"#utility.yul\":5396:5399   */\n      dup3\n        /* \"#utility.yul\":5392:5404   */\n      add\n        /* \"#utility.yul\":5385:5404   */\n      swap1\n      pop\n        /* \"#utility.yul\":5044:5410   */\n      swap2\n      swap1\n      pop\n      jump\t// out\n        /* \"#utility.yul\":5416:5835   */\n    tag_39:\n        /* \"#utility.yul\":5582:5586   */\n      0x00\n        /* \"#utility.yul\":5620:5622   */\n      0x20\n        /* \"#utility.yul\":5609:5618   */\n      dup3\n        /* \"#utility.yul\":5605:5623   */\n      add\n        /* \"#utility.yul\":5597:5623   */\n      swap1\n      pop\n        /* \"#utility.yul\":5669:5678   */\n      dup2\n        /* \"#utility.yul\":5663:5667   */\n      dup2\n        /* \"#utility.yul\":5659:5679   */\n      sub\n        /* \"#utility.yul\":5655:5656   */\n      0x00\n        /* \"#utility.yul\":5644:5653   */\n      dup4\n        /* \"#utility.yul\":5640:5657   */\n      add\n        /* \"#utility.yul\":5633:5680   */\n      mstore\n        /* \"#utility.yul\":5697:5828   */\n      tag_124\n        /* \"#utility.yul\":5823:5827   */\n      dup2\n        /* \"#utility.yul\":5697:5828   */\n      tag_60\n      jump\t// in\n    tag_124:\n        /* \"#utility.yul\":5689:5828   */\n      swap1\n      pop\n        /* \"#utility.yul\":5416:5835   */\n      swap2\n      swap1\n      pop\n      jump\t// out\n\n    auxdata: 0xa2646970667358221220e6cb6a6cb4aa5fac1fe5265e013594690e19311775bd8f09288a4527214aa71364736f6c63430008160033\n}\n",
				"bytecode": {
					"linkReferences": {},
					"object": "608060405234801561000f575f80fd5b506106068061001d5f395ff3fe60806040526004361061003e575f3560e01c806367c114b8146100425780636d26ec181461006a578063d18a42e114610074578063f486f96e146100b0575b5f80fd5b34801561004d575f80fd5b5061006860048036038101906100639190610335565b6100c6565b005b6100726101e8565b005b34801561007f575f80fd5b5061009a600480360381019061009591906103ae565b610252565b6040516100a791906103f1565b60405180910390f35b3480156100bb575f80fd5b506100c4610266565b005b5f803373ffffffffffffffffffffffffffffffffffffffff1673ffffffffffffffffffffffffffffffffffffffff1681526020019081526020015f20548160ff161115610148576040517f08c379a000000000000000000000000000000000000000000000000000000000815260040161013f90610464565b60405180910390fd5b8060ff165f803373ffffffffffffffffffffffffffffffffffffffff1673ffffffffffffffffffffffffffffffffffffffff1681526020019081526020015f205f82825461019691906104af565b925050819055508173ffffffffffffffffffffffffffffffffffffffff166108fc8260ff1690811502906040515f60405180830381858888f193505050501580156101e3573d5f803e3d5ffd5b505050565b3460ff1634146101fb576101fa6104e2565b5b3460ff165f803373ffffffffffffffffffffffffffffffffffffffff1673ffffffffffffffffffffffffffffffffffffffff1681526020019081526020015f205f828254610249919061050f565b92505081905550565b5f602052805f5260405f205f915090505481565b6040517f2c5c32dd000000000000000000000000000000000000000000000000000000008152600401610298906105b2565b60405180910390fd5b5f80fd5b5f73ffffffffffffffffffffffffffffffffffffffff82169050919050565b5f6102ce826102a5565b9050919050565b6102de816102c4565b81146102e8575f80fd5b50565b5f813590506102f9816102d5565b92915050565b5f60ff82169050919050565b610314816102ff565b811461031e575f80fd5b50565b5f8135905061032f8161030b565b92915050565b5f806040838503121561034b5761034a6102a1565b5b5f610358858286016102eb565b925050602061036985828601610321565b9150509250929050565b5f61037d826102a5565b9050919050565b61038d81610373565b8114610397575f80fd5b50565b5f813590506103a881610384565b92915050565b5f602082840312156103c3576103c26102a1565b5b5f6103d08482850161039a565b91505092915050565b5f819050919050565b6103eb816103d9565b82525050565b5f6020820190506104045f8301846103e2565b92915050565b5f82825260208201905092915050565b7f4e6f7420656e6f75676820666f756e64732c20726576657274696e67210000005f82015250565b5f61044e601d8361040a565b91506104598261041a565b602082019050919050565b5f6020820190508181035f83015261047b81610442565b9050919050565b7f4e487b71000000000000000000000000000000000000000000000000000000005f52601160045260245ffd5b5f6104b9826103d9565b91506104c4836103d9565b92508282039050818111156104dc576104db610482565b5b92915050565b7f4e487b71000000000000000000000000000000000000000000000000000000005f52600160045260245ffd5b5f610519826103d9565b9150610524836103d9565b925082820190508082111561053c5761053b610482565b5b92915050565b7f4e6f7420436174636861626c65206572726f722c2062757420726576657274695f8201527f6e672065766572797468696e6720686572650000000000000000000000000000602082015250565b5f61059c60328361040a565b91506105a782610542565b604082019050919050565b5f6020820190508181035f8301526105c981610590565b905091905056fea2646970667358221220e6cb6a6cb4aa5fac1fe5265e013594690e19311775bd8f09288a4527214aa71364736f6c63430008160033",
					"opcodes": "PUSH1 0x80 PUSH1 0x40 MSTORE CALLVALUE DUP1 ISZERO PUSH2 0xF JUMPI PUSH0 DUP1 REVERT JUMPDEST POP PUSH2 0x606 DUP1 PUSH2 0x1D PUSH0 CODECOPY PUSH0 RETURN INVALID PUSH1 0x80 PUSH1 0x40 MSTORE PUSH1 0x4 CALLDATASIZE LT PUSH2 0x3E JUMPI PUSH0 CALLDATALOAD PUSH1 0xE0 SHR DUP1 PUSH4 0x67C114B8 EQ PUSH2 0x42 JUMPI DUP1 PUSH4 0x6D26EC18 EQ PUSH2 0x6A JUMPI DUP1 PUSH4 0xD18A42E1 EQ PUSH2 0x74 JUMPI DUP1 PUSH4 0xF486F96E EQ PUSH2 0xB0 JUMPI JUMPDEST PUSH0 DUP1 REVERT JUMPDEST CALLVALUE DUP1 ISZERO PUSH2 0x4D JUMPI PUSH0 DUP1 REVERT JUMPDEST POP PUSH2 0x68 PUSH1 0x4 DUP1 CALLDATASIZE SUB DUP2 ADD SWAP1 PUSH2 0x63 SWAP2 SWAP1 PUSH2 0x335 JUMP JUMPDEST PUSH2 0xC6 JUMP JUMPDEST STOP JUMPDEST PUSH2 0x72 PUSH2 0x1E8 JUMP JUMPDEST STOP JUMPDEST CALLVALUE DUP1 ISZERO PUSH2 0x7F JUMPI PUSH0 DUP1 REVERT JUMPDEST POP PUSH2 0x9A PUSH1 0x4 DUP1 CALLDATASIZE SUB DUP2 ADD SWAP1 PUSH2 0x95 SWAP2 SWAP1 PUSH2 0x3AE JUMP JUMPDEST PUSH2 0x252 JUMP JUMPDEST PUSH1 0x40 MLOAD PUSH2 0xA7 SWAP2 SWAP1 PUSH2 0x3F1 JUMP JUMPDEST PUSH1 0x40 MLOAD DUP1 SWAP2 SUB SWAP1 RETURN JUMPDEST CALLVALUE DUP1 ISZERO PUSH2 0xBB JUMPI PUSH0 DUP1 REVERT JUMPDEST POP PUSH2 0xC4 PUSH2 0x266 JUMP JUMPDEST STOP JUMPDEST PUSH0 DUP1 CALLER PUSH20 0xFFFFFFFFFFFFFFFFFFFFFFFFFFFFFFFFFFFFFFFF AND PUSH20 0xFFFFFFFFFFFFFFFFFFFFFFFFFFFFFFFFFFFFFFFF AND DUP2 MSTORE PUSH1 0x20 ADD SWAP1 DUP2 MSTORE PUSH1 0x20 ADD PUSH0 KECCAK256 SLOAD DUP2 PUSH1 0xFF AND GT ISZERO PUSH2 0x148 JUMPI PUSH1 0x40 MLOAD PUSH32 0x8C379A000000000000000000000000000000000000000000000000000000000 DUP2 MSTORE PUSH1 0x4 ADD PUSH2 0x13F SWAP1 PUSH2 0x464 JUMP JUMPDEST PUSH1 0x40 MLOAD DUP1 SWAP2 SUB SWAP1 REVERT JUMPDEST DUP1 PUSH1 0xFF AND PUSH0 DUP1 CALLER PUSH20 0xFFFFFFFFFFFFFFFFFFFFFFFFFFFFFFFFFFFFFFFF AND PUSH20 0xFFFFFFFFFFFFFFFFFFFFFFFFFFFFFFFFFFFFFFFF AND DUP2 MSTORE PUSH1 0x20 ADD SWAP1 DUP2 MSTORE PUSH1 0x20 ADD PUSH0 KECCAK256 PUSH0 DUP3 DUP3 SLOAD PUSH2 0x196 SWAP2 SWAP1 PUSH2 0x4AF JUMP JUMPDEST SWAP3 POP POP DUP2 SWAP1 SSTORE POP DUP2 PUSH20 0xFFFFFFFFFFFFFFFFFFFFFFFFFFFFFFFFFFFFFFFF AND PUSH2 0x8FC DUP3 PUSH1 0xFF AND SWAP1 DUP2 ISZERO MUL SWAP1 PUSH1 0x40 MLOAD PUSH0 PUSH1 0x40 MLOAD DUP1 DUP4 SUB DUP2 DUP6 DUP9 DUP9 CALL SWAP4 POP POP POP POP ISZERO DUP1 ISZERO PUSH2 0x1E3 JUMPI RETURNDATASIZE PUSH0 DUP1 RETURNDATACOPY RETURNDATASIZE PUSH0 REVERT JUMPDEST POP POP POP JUMP JUMPDEST CALLVALUE PUSH1 0xFF AND CALLVALUE EQ PUSH2 0x1FB JUMPI PUSH2 0x1FA PUSH2 0x4E2 JUMP JUMPDEST JUMPDEST CALLVALUE PUSH1 0xFF AND PUSH0 DUP1 CALLER PUSH20 0xFFFFFFFFFFFFFFFFFFFFFFFFFFFFFFFFFFFFFFFF AND PUSH20 0xFFFFFFFFFFFFFFFFFFFFFFFFFFFFFFFFFFFFFFFF AND DUP2 MSTORE PUSH1 0x20 ADD SWAP1 DUP2 MSTORE PUSH1 0x20 ADD PUSH0 KECCAK256 PUSH0 DUP3 DUP3 SLOAD PUSH2 0x249 SWAP2 SWAP1 PUSH2 0x50F JUMP JUMPDEST SWAP3 POP POP DUP2 SWAP1 SSTORE POP JUMP JUMPDEST PUSH0 PUSH1 0x20 MSTORE DUP1 PUSH0 MSTORE PUSH1 0x40 PUSH0 KECCAK256 PUSH0 SWAP2 POP SWAP1 POP SLOAD DUP2 JUMP JUMPDEST PUSH1 0x40 MLOAD PUSH32 0x2C5C32DD00000000000000000000000000000000000000000000000000000000 DUP2 MSTORE PUSH1 0x4 ADD PUSH2 0x298 SWAP1 PUSH2 0x5B2 JUMP JUMPDEST PUSH1 0x40 MLOAD DUP1 SWAP2 SUB SWAP1 REVERT JUMPDEST PUSH0 DUP1 REVERT JUMPDEST PUSH0 PUSH20 0xFFFFFFFFFFFFFFFFFFFFFFFFFFFFFFFFFFFFFFFF DUP3 AND SWAP1 POP SWAP2 SWAP1 POP JUMP JUMPDEST PUSH0 PUSH2 0x2CE DUP3 PUSH2 0x2A5 JUMP JUMPDEST SWAP1 POP SWAP2 SWAP1 POP JUMP JUMPDEST PUSH2 0x2DE DUP2 PUSH2 0x2C4 JUMP JUMPDEST DUP2 EQ PUSH2 0x2E8 JUMPI PUSH0 DUP1 REVERT JUMPDEST POP JUMP JUMPDEST PUSH0 DUP2 CALLDATALOAD SWAP1 POP PUSH2 0x2F9 DUP2 PUSH2 0x2D5 JUMP JUMPDEST SWAP3 SWAP2 POP POP JUMP JUMPDEST PUSH0 PUSH1 0xFF DUP3 AND SWAP1 POP SWAP2 SWAP1 POP JUMP JUMPDEST PUSH2 0x314 DUP2 PUSH2 0x2FF JUMP JUMPDEST DUP2 EQ PUSH2 0x31E JUMPI PUSH0 DUP1 REVERT JUMPDEST POP JUMP JUMPDEST PUSH0 DUP2 CALLDATALOAD SWAP1 POP PUSH2 0x32F DUP2 PUSH2 0x30B JUMP JUMPDEST SWAP3 SWAP2 POP POP JUMP JUMPDEST PUSH0 DUP1 PUSH1 0x40 DUP4 DUP6 SUB SLT ISZERO PUSH2 0x34B JUMPI PUSH2 0x34A PUSH2 0x2A1 JUMP JUMPDEST JUMPDEST PUSH0 PUSH2 0x358 DUP6 DUP3 DUP7 ADD PUSH2 0x2EB JUMP JUMPDEST SWAP3 POP POP PUSH1 0x20 PUSH2 0x369 DUP6 DUP3 DUP7 ADD PUSH2 0x321 JUMP JUMPDEST SWAP2 POP POP SWAP3 POP SWAP3 SWAP1 POP JUMP JUMPDEST PUSH0 PUSH2 0x37D DUP3 PUSH2 0x2A5 JUMP JUMPDEST SWAP1 POP SWAP2 SWAP1 POP JUMP JUMPDEST PUSH2 0x38D DUP2 PUSH2 0x373 JUMP JUMPDEST DUP2 EQ PUSH2 0x397 JUMPI PUSH0 DUP1 REVERT JUMPDEST POP JUMP JUMPDEST PUSH0 DUP2 CALLDATALOAD SWAP1 POP PUSH2 0x3A8 DUP2 PUSH2 0x384 JUMP JUMPDEST SWAP3 SWAP2 POP POP JUMP JUMPDEST PUSH0 PUSH1 0x20 DUP3 DUP5 SUB SLT ISZERO PUSH2 0x3C3 JUMPI PUSH2 0x3C2 PUSH2 0x2A1 JUMP JUMPDEST JUMPDEST PUSH0 PUSH2 0x3D0 DUP5 DUP3 DUP6 ADD PUSH2 0x39A JUMP JUMPDEST SWAP2 POP POP SWAP3 SWAP2 POP POP JUMP JUMPDEST PUSH0 DUP2 SWAP1 POP SWAP2 SWAP1 POP JUMP JUMPDEST PUSH2 0x3EB DUP2 PUSH2 0x3D9 JUMP JUMPDEST DUP3 MSTORE POP POP JUMP JUMPDEST PUSH0 PUSH1 0x20 DUP3 ADD SWAP1 POP PUSH2 0x404 PUSH0 DUP4 ADD DUP5 PUSH2 0x3E2 JUMP JUMPDEST SWAP3 SWAP2 POP POP JUMP JUMPDEST PUSH0 DUP3 DUP3 MSTORE PUSH1 0x20 DUP3 ADD SWAP1 POP SWAP3 SWAP2 POP POP JUMP JUMPDEST PUSH32 0x4E6F7420656E6F75676820666F756E64732C20726576657274696E6721000000 PUSH0 DUP3 ADD MSTORE POP JUMP JUMPDEST PUSH0 PUSH2 0x44E PUSH1 0x1D DUP4 PUSH2 0x40A JUMP JUMPDEST SWAP2 POP PUSH2 0x459 DUP3 PUSH2 0x41A JUMP JUMPDEST PUSH1 0x20 DUP3 ADD SWAP1 POP SWAP2 SWAP1 POP JUMP JUMPDEST PUSH0 PUSH1 0x20 DUP3 ADD SWAP1 POP DUP2 DUP2 SUB PUSH0 DUP4 ADD MSTORE PUSH2 0x47B DUP2 PUSH2 0x442 JUMP JUMPDEST SWAP1 POP SWAP2 SWAP1 POP JUMP JUMPDEST PUSH32 0x4E487B7100000000000000000000000000000000000000000000000000000000 PUSH0 MSTORE PUSH1 0x11 PUSH1 0x4 MSTORE PUSH1 0x24 PUSH0 REVERT JUMPDEST PUSH0 PUSH2 0x4B9 DUP3 PUSH2 0x3D9 JUMP JUMPDEST SWAP2 POP PUSH2 0x4C4 DUP4 PUSH2 0x3D9 JUMP JUMPDEST SWAP3 POP DUP3 DUP3 SUB SWAP1 POP DUP2 DUP2 GT ISZERO PUSH2 0x4DC JUMPI PUSH2 0x4DB PUSH2 0x482 JUMP JUMPDEST JUMPDEST SWAP3 SWAP2 POP POP JUMP JUMPDEST PUSH32 0x4E487B7100000000000000000000000000000000000000000000000000000000 PUSH0 MSTORE PUSH1 0x1 PUSH1 0x4 MSTORE PUSH1 0x24 PUSH0 REVERT JUMPDEST PUSH0 PUSH2 0x519 DUP3 PUSH2 0x3D9 JUMP JUMPDEST SWAP2 POP PUSH2 0x524 DUP4 PUSH2 0x3D9 JUMP JUMPDEST SWAP3 POP DUP3 DUP3 ADD SWAP1 POP DUP1 DUP3 GT ISZERO PUSH2 0x53C JUMPI PUSH2 0x53B PUSH2 0x482 JUMP JUMPDEST JUMPDEST SWAP3 SWAP2 POP POP JUMP JUMPDEST PUSH32 0x4E6F7420436174636861626C65206572726F722C206275742072657665727469 PUSH0 DUP3 ADD MSTORE PUSH32 0x6E672065766572797468696E6720686572650000000000000000000000000000 PUSH1 0x20 DUP3 ADD MSTORE POP JUMP JUMPDEST PUSH0 PUSH2 0x59C PUSH1 0x32 DUP4 PUSH2 0x40A JUMP JUMPDEST SWAP2 POP PUSH2 0x5A7 DUP3 PUSH2 0x542 JUMP JUMPDEST PUSH1 0x40 DUP3 ADD SWAP1 POP SWAP2 SWAP1 POP JUMP JUMPDEST PUSH0 PUSH1 0x20 DUP3 ADD SWAP1 POP DUP2 DUP2 SUB PUSH0 DUP4 ADD MSTORE PUSH2 0x5C9 DUP2 PUSH2 0x590 JUMP JUMPDEST SWAP1 POP SWAP2 SWAP1 POP JUMP INVALID LOG2 PUSH5 0x6970667358 0x22 SLT KECCAK256 0xE6 0xCB PUSH11 0x6CB4AA5FAC1FE5265E0135 SWAP5 PUSH10 0xE19311775BD8F09288A GASLIMIT 0x27 0x21 0x4A 0xA7 SGT PUSH5 0x736F6C6343 STOP ADDMOD AND STOP CALLER "
				},
				"gasEstimates": {
					"creation": {
						"codeDepositCost": "308400",
						"executionCost": "347",
						"totalCost": "308747"
					},
					"external": {
						"balanceReceived(address)": "2823",
						"receiveMoney()": "infinite",
						"throwErrorFunction()": "490",
						"withdrawMoney(address,uint8)": "infinite"
					}
				},
				"methodIdentifiers": {
					"balanceReceived(address)": "d18a42e1",
					"receiveMoney()": "6d26ec18",
					"throwErrorFunction()": "f486f96e",
					"withdrawMoney(address,uint8)": "67c114b8"
				}
			},
			"storageLayout": {
				"storage": [
					{
						"astId": 9,
						"contract": "contracts/TryCatch.sol:TryCatch",
						"label": "balanceReceived",
						"offset": 0,
						"slot": "0",
						"type": "t_mapping(t_address,t_uint256)"
					}
				],
				"types": {
					"t_address": {
						"encoding": "inplace",
						"label": "address",
						"numberOfBytes": "20"
					},
					"t_mapping(t_address,t_uint256)": {
						"encoding": "mapping",
						"key": "t_address",
						"label": "mapping(address => uint256)",
						"numberOfBytes": "32",
						"value": "t_uint256"
					},
					"t_uint256": {
						"encoding": "inplace",
						"label": "uint256",
						"numberOfBytes": "32"
					}
				}
			},
			"userdoc": {
				"kind": "user",
				"methods": {},
				"version": 1
			}
		}
	}
}