{
	"contracts/MappingContract.sol": {
		"MappingContract": {
			"abi": [
				{
					"inputs": [],
					"name": "addFundsToMyAddress",
					"outputs": [],
					"stateMutability": "payable",
					"type": "function"
				},
				{
					"inputs": [
						{
							"internalType": "address",
							"name": "",
							"type": "address"
						}
					],
					"name": "addressBalances",
					"outputs": [
						{
							"internalType": "uint256",
							"name": "",
							"type": "uint256"
						}
					],
					"stateMutability": "view",
					"type": "function"
				},
				{
					"inputs": [
						{
							"internalType": "address",
							"name": "",
							"type": "address"
						},
						{
							"internalType": "address",
							"name": "",
							"type": "address"
						}
					],
					"name": "addressFriendship",
					"outputs": [
						{
							"internalType": "bool",
							"name": "",
							"type": "bool"
						}
					],
					"stateMutability": "view",
					"type": "function"
				},
				{
					"inputs": [
						{
							"internalType": "uint256",
							"name": "",
							"type": "uint256"
						}
					],
					"name": "myMapping",
					"outputs": [
						{
							"internalType": "bool",
							"name": "",
							"type": "bool"
						}
					],
					"stateMutability": "view",
					"type": "function"
				},
				{
					"inputs": [
						{
							"internalType": "address",
							"name": "_key1",
							"type": "address"
						},
						{
							"internalType": "address",
							"name": "_key2",
							"type": "address"
						},
						{
							"internalType": "bool",
							"name": "value",
							"type": "bool"
						}
					],
					"name": "setAddressFriendship",
					"outputs": [],
					"stateMutability": "nonpayable",
					"type": "function"
				},
				{
					"inputs": [
						{
							"internalType": "uint256",
							"name": "_key",
							"type": "uint256"
						},
						{
							"internalType": "bool",
							"name": "value",
							"type": "bool"
						}
					],
					"name": "setMyMapping",
					"outputs": [],
					"stateMutability": "nonpayable",
					"type": "function"
				}
			],
			"devdoc": {
				"kind": "dev",
				"methods": {},
				"version": 1
			},
			"evm": {
				"assembly": "    /* \"contracts/MappingContract.sol\":62:618  contract MappingContract{... */\n  mstore(0x40, 0x80)\n  callvalue\n  dup1\n  iszero\n  tag_1\n  jumpi\n  0x00\n  dup1\n  revert\ntag_1:\n  pop\n  dataSize(sub_0)\n  dup1\n  dataOffset(sub_0)\n  0x00\n  codecopy\n  0x00\n  return\nstop\n\nsub_0: assembly {\n        /* \"contracts/MappingContract.sol\":62:618  contract MappingContract{... */\n      mstore(0x40, 0x80)\n      jumpi(tag_1, lt(calldatasize, 0x04))\n      shr(0xe0, calldataload(0x00))\n      dup1\n      0x79fc3682\n      eq\n      tag_2\n      jumpi\n      dup1\n      0x7c668844\n      eq\n      tag_3\n      jumpi\n      dup1\n      0xbbf11e70\n      eq\n      tag_4\n      jumpi\n      dup1\n      0xcea8692e\n      eq\n      tag_5\n      jumpi\n      dup1\n      0xed50d7c9\n      eq\n      tag_6\n      jumpi\n      dup1\n      0xffd4c024\n      eq\n      tag_7\n      jumpi\n    tag_1:\n      0x00\n      dup1\n      revert\n        /* \"contracts/MappingContract.sol\":140:187  mapping(address => uint) public addressBalances */\n    tag_2:\n      callvalue\n      dup1\n      iszero\n      tag_8\n      jumpi\n      0x00\n      dup1\n      revert\n    tag_8:\n      pop\n      tag_9\n      0x04\n      dup1\n      calldatasize\n      sub\n      dup2\n      add\n      swap1\n      tag_10\n      swap2\n      swap1\n      tag_11\n      jump\t// in\n    tag_10:\n      tag_12\n      jump\t// in\n    tag_9:\n      mload(0x40)\n      tag_13\n      swap2\n      swap1\n      tag_14\n      jump\t// in\n    tag_13:\n      mload(0x40)\n      dup1\n      swap2\n      sub\n      swap1\n      return\n        /* \"contracts/MappingContract.sol\":95:133  mapping(uint => bool) public myMapping */\n    tag_3:\n      callvalue\n      dup1\n      iszero\n      tag_15\n      jumpi\n      0x00\n      dup1\n      revert\n    tag_15:\n      pop\n      tag_16\n      0x04\n      dup1\n      calldatasize\n      sub\n      dup2\n      add\n      swap1\n      tag_17\n      swap2\n      swap1\n      tag_18\n      jump\t// in\n    tag_17:\n      tag_19\n      jump\t// in\n    tag_16:\n      mload(0x40)\n      tag_20\n      swap2\n      swap1\n      tag_21\n      jump\t// in\n    tag_20:\n      mload(0x40)\n      dup1\n      swap2\n      sub\n      swap1\n      return\n        /* \"contracts/MappingContract.sol\":196:263  mapping(address => mapping(address=>bool)) public addressFriendship */\n    tag_4:\n      callvalue\n      dup1\n      iszero\n      tag_22\n      jumpi\n      0x00\n      dup1\n      revert\n    tag_22:\n      pop\n      tag_23\n      0x04\n      dup1\n      calldatasize\n      sub\n      dup2\n      add\n      swap1\n      tag_24\n      swap2\n      swap1\n      tag_25\n      jump\t// in\n    tag_24:\n      tag_26\n      jump\t// in\n    tag_23:\n      mload(0x40)\n      tag_27\n      swap2\n      swap1\n      tag_21\n      jump\t// in\n    tag_27:\n      mload(0x40)\n      dup1\n      swap2\n      sub\n      swap1\n      return\n        /* \"contracts/MappingContract.sol\":482:615  function setAddressFriendship(address _key1,address _key2,bool value)public{... */\n    tag_5:\n      callvalue\n      dup1\n      iszero\n      tag_28\n      jumpi\n      0x00\n      dup1\n      revert\n    tag_28:\n      pop\n      tag_29\n      0x04\n      dup1\n      calldatasize\n      sub\n      dup2\n      add\n      swap1\n      tag_30\n      swap2\n      swap1\n      tag_31\n      jump\t// in\n    tag_30:\n      tag_32\n      jump\t// in\n    tag_29:\n      stop\n        /* \"contracts/MappingContract.sol\":370:474  function addFundsToMyAddress() public payable{... */\n    tag_6:\n      tag_33\n      tag_34\n      jump\t// in\n    tag_33:\n      stop\n        /* \"contracts/MappingContract.sol\":272:364  function setMyMapping(uint _key, bool value)public{... */\n    tag_7:\n      callvalue\n      dup1\n      iszero\n      tag_35\n      jumpi\n      0x00\n      dup1\n      revert\n    tag_35:\n      pop\n      tag_36\n      0x04\n      dup1\n      calldatasize\n      sub\n      dup2\n      add\n      swap1\n      tag_37\n      swap2\n      swap1\n      tag_38\n      jump\t// in\n    tag_37:\n      tag_39\n      jump\t// in\n    tag_36:\n      stop\n        /* \"contracts/MappingContract.sol\":140:187  mapping(address => uint) public addressBalances */\n    tag_12:\n      mstore(0x20, 0x01)\n      dup1\n      0x00\n      mstore\n      keccak256(0x00, 0x40)\n      0x00\n      swap2\n      pop\n      swap1\n      pop\n      sload\n      dup2\n      jump\t// out\n        /* \"contracts/MappingContract.sol\":95:133  mapping(uint => bool) public myMapping */\n    tag_19:\n      mstore(0x20, 0x00)\n      dup1\n      0x00\n      mstore\n      keccak256(0x00, 0x40)\n      0x00\n      swap2\n      pop\n      sload\n      swap1\n      0x0100\n      exp\n      swap1\n      div\n      0xff\n      and\n      dup2\n      jump\t// out\n        /* \"contracts/MappingContract.sol\":196:263  mapping(address => mapping(address=>bool)) public addressFriendship */\n    tag_26:\n      mstore(0x20, 0x02)\n      dup2\n      0x00\n      mstore\n      mstore(0x20, keccak256(0x00, 0x40))\n      dup1\n      0x00\n      mstore\n      keccak256(0x00, 0x40)\n      0x00\n      swap2\n      pop\n      swap2\n      pop\n      swap1\n      sload\n      swap1\n      0x0100\n      exp\n      swap1\n      div\n      0xff\n      and\n      dup2\n      jump\t// out\n        /* \"contracts/MappingContract.sol\":482:615  function setAddressFriendship(address _key1,address _key2,bool value)public{... */\n    tag_32:\n        /* \"contracts/MappingContract.sol\":602:607  value */\n      dup1\n        /* \"contracts/MappingContract.sol\":568:585  addressFriendship */\n      0x02\n        /* \"contracts/MappingContract.sol\":568:592  addressFriendship[_key1] */\n      0x00\n        /* \"contracts/MappingContract.sol\":586:591  _key1 */\n      dup6\n        /* \"contracts/MappingContract.sol\":568:592  addressFriendship[_key1] */\n      0xffffffffffffffffffffffffffffffffffffffff\n      and\n      0xffffffffffffffffffffffffffffffffffffffff\n      and\n      dup2\n      mstore\n      0x20\n      add\n      swap1\n      dup2\n      mstore\n      0x20\n      add\n      0x00\n      keccak256\n        /* \"contracts/MappingContract.sol\":568:599  addressFriendship[_key1][_key2] */\n      0x00\n        /* \"contracts/MappingContract.sol\":593:598  _key2 */\n      dup5\n        /* \"contracts/MappingContract.sol\":568:599  addressFriendship[_key1][_key2] */\n      0xffffffffffffffffffffffffffffffffffffffff\n      and\n      0xffffffffffffffffffffffffffffffffffffffff\n      and\n      dup2\n      mstore\n      0x20\n      add\n      swap1\n      dup2\n      mstore\n      0x20\n      add\n      0x00\n      keccak256\n      0x00\n        /* \"contracts/MappingContract.sol\":568:607  addressFriendship[_key1][_key2] = value */\n      0x0100\n      exp\n      dup2\n      sload\n      dup2\n      0xff\n      mul\n      not\n      and\n      swap1\n      dup4\n      iszero\n      iszero\n      mul\n      or\n      swap1\n      sstore\n      pop\n        /* \"contracts/MappingContract.sol\":482:615  function setAddressFriendship(address _key1,address _key2,bool value)public{... */\n      pop\n      pop\n      pop\n      jump\t// out\n        /* \"contracts/MappingContract.sol\":370:474  function addFundsToMyAddress() public payable{... */\n    tag_34:\n        /* \"contracts/MappingContract.sol\":457:466  msg.value */\n      callvalue\n        /* \"contracts/MappingContract.sol\":426:441  addressBalances */\n      0x01\n        /* \"contracts/MappingContract.sol\":426:453  addressBalances[msg.sender] */\n      0x00\n        /* \"contracts/MappingContract.sol\":442:452  msg.sender */\n      caller\n        /* \"contracts/MappingContract.sol\":426:453  addressBalances[msg.sender] */\n      0xffffffffffffffffffffffffffffffffffffffff\n      and\n      0xffffffffffffffffffffffffffffffffffffffff\n      and\n      dup2\n      mstore\n      0x20\n      add\n      swap1\n      dup2\n      mstore\n      0x20\n      add\n      0x00\n      keccak256\n      0x00\n        /* \"contracts/MappingContract.sol\":426:466  addressBalances[msg.sender] += msg.value */\n      dup3\n      dup3\n      sload\n      tag_42\n      swap2\n      swap1\n      tag_43\n      jump\t// in\n    tag_42:\n      swap3\n      pop\n      pop\n      dup2\n      swap1\n      sstore\n      pop\n        /* \"contracts/MappingContract.sol\":370:474  function addFundsToMyAddress() public payable{... */\n      jump\t// out\n        /* \"contracts/MappingContract.sol\":272:364  function setMyMapping(uint _key, bool value)public{... */\n    tag_39:\n        /* \"contracts/MappingContract.sol\":351:356  value */\n      dup1\n        /* \"contracts/MappingContract.sol\":333:342  myMapping */\n      0x00\n        /* \"contracts/MappingContract.sol\":333:348  myMapping[_key] */\n      dup1\n        /* \"contracts/MappingContract.sol\":343:347  _key */\n      dup5\n        /* \"contracts/MappingContract.sol\":333:348  myMapping[_key] */\n      dup2\n      mstore\n      0x20\n      add\n      swap1\n      dup2\n      mstore\n      0x20\n      add\n      0x00\n      keccak256\n      0x00\n        /* \"contracts/MappingContract.sol\":333:356  myMapping[_key] = value */\n      0x0100\n      exp\n      dup2\n      sload\n      dup2\n      0xff\n      mul\n      not\n      and\n      swap1\n      dup4\n      iszero\n      iszero\n      mul\n      or\n      swap1\n      sstore\n      pop\n        /* \"contracts/MappingContract.sol\":272:364  function setMyMapping(uint _key, bool value)public{... */\n      pop\n      pop\n      jump\t// out\n        /* \"#utility.yul\":88:205   */\n    tag_46:\n        /* \"#utility.yul\":197:198   */\n      0x00\n        /* \"#utility.yul\":194:195   */\n      dup1\n        /* \"#utility.yul\":187:199   */\n      revert\n        /* \"#utility.yul\":334:460   */\n    tag_48:\n        /* \"#utility.yul\":371:378   */\n      0x00\n        /* \"#utility.yul\":411:453   */\n      0xffffffffffffffffffffffffffffffffffffffff\n        /* \"#utility.yul\":404:409   */\n      dup3\n        /* \"#utility.yul\":400:454   */\n      and\n        /* \"#utility.yul\":389:454   */\n      swap1\n      pop\n        /* \"#utility.yul\":334:460   */\n      swap2\n      swap1\n      pop\n      jump\t// out\n        /* \"#utility.yul\":466:562   */\n    tag_49:\n        /* \"#utility.yul\":503:510   */\n      0x00\n        /* \"#utility.yul\":532:556   */\n      tag_67\n        /* \"#utility.yul\":550:555   */\n      dup3\n        /* \"#utility.yul\":532:556   */\n      tag_48\n      jump\t// in\n    tag_67:\n        /* \"#utility.yul\":521:556   */\n      swap1\n      pop\n        /* \"#utility.yul\":466:562   */\n      swap2\n      swap1\n      pop\n      jump\t// out\n        /* \"#utility.yul\":568:690   */\n    tag_50:\n        /* \"#utility.yul\":641:665   */\n      tag_69\n        /* \"#utility.yul\":659:664   */\n      dup2\n        /* \"#utility.yul\":641:665   */\n      tag_49\n      jump\t// in\n    tag_69:\n        /* \"#utility.yul\":634:639   */\n      dup2\n        /* \"#utility.yul\":631:666   */\n      eq\n        /* \"#utility.yul\":621:684   */\n      tag_70\n      jumpi\n        /* \"#utility.yul\":680:681   */\n      0x00\n        /* \"#utility.yul\":677:678   */\n      dup1\n        /* \"#utility.yul\":670:682   */\n      revert\n        /* \"#utility.yul\":621:684   */\n    tag_70:\n        /* \"#utility.yul\":568:690   */\n      pop\n      jump\t// out\n        /* \"#utility.yul\":696:835   */\n    tag_51:\n        /* \"#utility.yul\":742:747   */\n      0x00\n        /* \"#utility.yul\":780:786   */\n      dup2\n        /* \"#utility.yul\":767:787   */\n      calldataload\n        /* \"#utility.yul\":758:787   */\n      swap1\n      pop\n        /* \"#utility.yul\":796:829   */\n      tag_72\n        /* \"#utility.yul\":823:828   */\n      dup2\n        /* \"#utility.yul\":796:829   */\n      tag_50\n      jump\t// in\n    tag_72:\n        /* \"#utility.yul\":696:835   */\n      swap3\n      swap2\n      pop\n      pop\n      jump\t// out\n        /* \"#utility.yul\":841:1170   */\n    tag_11:\n        /* \"#utility.yul\":900:906   */\n      0x00\n        /* \"#utility.yul\":949:951   */\n      0x20\n        /* \"#utility.yul\":937:946   */\n      dup3\n        /* \"#utility.yul\":928:935   */\n      dup5\n        /* \"#utility.yul\":924:947   */\n      sub\n        /* \"#utility.yul\":920:952   */\n      slt\n        /* \"#utility.yul\":917:1036   */\n      iszero\n      tag_74\n      jumpi\n        /* \"#utility.yul\":955:1034   */\n      tag_75\n      tag_46\n      jump\t// in\n    tag_75:\n        /* \"#utility.yul\":917:1036   */\n    tag_74:\n        /* \"#utility.yul\":1075:1076   */\n      0x00\n        /* \"#utility.yul\":1100:1153   */\n      tag_76\n        /* \"#utility.yul\":1145:1152   */\n      dup5\n        /* \"#utility.yul\":1136:1142   */\n      dup3\n        /* \"#utility.yul\":1125:1134   */\n      dup6\n        /* \"#utility.yul\":1121:1143   */\n      add\n        /* \"#utility.yul\":1100:1153   */\n      tag_51\n      jump\t// in\n    tag_76:\n        /* \"#utility.yul\":1090:1153   */\n      swap2\n      pop\n        /* \"#utility.yul\":1046:1163   */\n      pop\n        /* \"#utility.yul\":841:1170   */\n      swap3\n      swap2\n      pop\n      pop\n      jump\t// out\n        /* \"#utility.yul\":1176:1253   */\n    tag_52:\n        /* \"#utility.yul\":1213:1220   */\n      0x00\n        /* \"#utility.yul\":1242:1247   */\n      dup2\n        /* \"#utility.yul\":1231:1247   */\n      swap1\n      pop\n        /* \"#utility.yul\":1176:1253   */\n      swap2\n      swap1\n      pop\n      jump\t// out\n        /* \"#utility.yul\":1259:1377   */\n    tag_53:\n        /* \"#utility.yul\":1346:1370   */\n      tag_79\n        /* \"#utility.yul\":1364:1369   */\n      dup2\n        /* \"#utility.yul\":1346:1370   */\n      tag_52\n      jump\t// in\n    tag_79:\n        /* \"#utility.yul\":1341:1344   */\n      dup3\n        /* \"#utility.yul\":1334:1371   */\n      mstore\n        /* \"#utility.yul\":1259:1377   */\n      pop\n      pop\n      jump\t// out\n        /* \"#utility.yul\":1383:1605   */\n    tag_14:\n        /* \"#utility.yul\":1476:1480   */\n      0x00\n        /* \"#utility.yul\":1514:1516   */\n      0x20\n        /* \"#utility.yul\":1503:1512   */\n      dup3\n        /* \"#utility.yul\":1499:1517   */\n      add\n        /* \"#utility.yul\":1491:1517   */\n      swap1\n      pop\n        /* \"#utility.yul\":1527:1598   */\n      tag_81\n        /* \"#utility.yul\":1595:1596   */\n      0x00\n        /* \"#utility.yul\":1584:1593   */\n      dup4\n        /* \"#utility.yul\":1580:1597   */\n      add\n        /* \"#utility.yul\":1571:1577   */\n      dup5\n        /* \"#utility.yul\":1527:1598   */\n      tag_53\n      jump\t// in\n    tag_81:\n        /* \"#utility.yul\":1383:1605   */\n      swap3\n      swap2\n      pop\n      pop\n      jump\t// out\n        /* \"#utility.yul\":1611:1733   */\n    tag_54:\n        /* \"#utility.yul\":1684:1708   */\n      tag_83\n        /* \"#utility.yul\":1702:1707   */\n      dup2\n        /* \"#utility.yul\":1684:1708   */\n      tag_52\n      jump\t// in\n    tag_83:\n        /* \"#utility.yul\":1677:1682   */\n      dup2\n        /* \"#utility.yul\":1674:1709   */\n      eq\n        /* \"#utility.yul\":1664:1727   */\n      tag_84\n      jumpi\n        /* \"#utility.yul\":1723:1724   */\n      0x00\n        /* \"#utility.yul\":1720:1721   */\n      dup1\n        /* \"#utility.yul\":1713:1725   */\n      revert\n        /* \"#utility.yul\":1664:1727   */\n    tag_84:\n        /* \"#utility.yul\":1611:1733   */\n      pop\n      jump\t// out\n        /* \"#utility.yul\":1739:1878   */\n    tag_55:\n        /* \"#utility.yul\":1785:1790   */\n      0x00\n        /* \"#utility.yul\":1823:1829   */\n      dup2\n        /* \"#utility.yul\":1810:1830   */\n      calldataload\n        /* \"#utility.yul\":1801:1830   */\n      swap1\n      pop\n        /* \"#utility.yul\":1839:1872   */\n      tag_86\n        /* \"#utility.yul\":1866:1871   */\n      dup2\n        /* \"#utility.yul\":1839:1872   */\n      tag_54\n      jump\t// in\n    tag_86:\n        /* \"#utility.yul\":1739:1878   */\n      swap3\n      swap2\n      pop\n      pop\n      jump\t// out\n        /* \"#utility.yul\":1884:2213   */\n    tag_18:\n        /* \"#utility.yul\":1943:1949   */\n      0x00\n        /* \"#utility.yul\":1992:1994   */\n      0x20\n        /* \"#utility.yul\":1980:1989   */\n      dup3\n        /* \"#utility.yul\":1971:1978   */\n      dup5\n        /* \"#utility.yul\":1967:1990   */\n      sub\n        /* \"#utility.yul\":1963:1995   */\n      slt\n        /* \"#utility.yul\":1960:2079   */\n      iszero\n      tag_88\n      jumpi\n        /* \"#utility.yul\":1998:2077   */\n      tag_89\n      tag_46\n      jump\t// in\n    tag_89:\n        /* \"#utility.yul\":1960:2079   */\n    tag_88:\n        /* \"#utility.yul\":2118:2119   */\n      0x00\n        /* \"#utility.yul\":2143:2196   */\n      tag_90\n        /* \"#utility.yul\":2188:2195   */\n      dup5\n        /* \"#utility.yul\":2179:2185   */\n      dup3\n        /* \"#utility.yul\":2168:2177   */\n      dup6\n        /* \"#utility.yul\":2164:2186   */\n      add\n        /* \"#utility.yul\":2143:2196   */\n      tag_55\n      jump\t// in\n    tag_90:\n        /* \"#utility.yul\":2133:2196   */\n      swap2\n      pop\n        /* \"#utility.yul\":2089:2206   */\n      pop\n        /* \"#utility.yul\":1884:2213   */\n      swap3\n      swap2\n      pop\n      pop\n      jump\t// out\n        /* \"#utility.yul\":2219:2309   */\n    tag_56:\n        /* \"#utility.yul\":2253:2260   */\n      0x00\n        /* \"#utility.yul\":2296:2301   */\n      dup2\n        /* \"#utility.yul\":2289:2302   */\n      iszero\n        /* \"#utility.yul\":2282:2303   */\n      iszero\n        /* \"#utility.yul\":2271:2303   */\n      swap1\n      pop\n        /* \"#utility.yul\":2219:2309   */\n      swap2\n      swap1\n      pop\n      jump\t// out\n        /* \"#utility.yul\":2315:2424   */\n    tag_57:\n        /* \"#utility.yul\":2396:2417   */\n      tag_93\n        /* \"#utility.yul\":2411:2416   */\n      dup2\n        /* \"#utility.yul\":2396:2417   */\n      tag_56\n      jump\t// in\n    tag_93:\n        /* \"#utility.yul\":2391:2394   */\n      dup3\n        /* \"#utility.yul\":2384:2418   */\n      mstore\n        /* \"#utility.yul\":2315:2424   */\n      pop\n      pop\n      jump\t// out\n        /* \"#utility.yul\":2430:2640   */\n    tag_21:\n        /* \"#utility.yul\":2517:2521   */\n      0x00\n        /* \"#utility.yul\":2555:2557   */\n      0x20\n        /* \"#utility.yul\":2544:2553   */\n      dup3\n        /* \"#utility.yul\":2540:2558   */\n      add\n        /* \"#utility.yul\":2532:2558   */\n      swap1\n      pop\n        /* \"#utility.yul\":2568:2633   */\n      tag_95\n        /* \"#utility.yul\":2630:2631   */\n      0x00\n        /* \"#utility.yul\":2619:2628   */\n      dup4\n        /* \"#utility.yul\":2615:2632   */\n      add\n        /* \"#utility.yul\":2606:2612   */\n      dup5\n        /* \"#utility.yul\":2568:2633   */\n      tag_57\n      jump\t// in\n    tag_95:\n        /* \"#utility.yul\":2430:2640   */\n      swap3\n      swap2\n      pop\n      pop\n      jump\t// out\n        /* \"#utility.yul\":2646:3120   */\n    tag_25:\n        /* \"#utility.yul\":2714:2720   */\n      0x00\n        /* \"#utility.yul\":2722:2728   */\n      dup1\n        /* \"#utility.yul\":2771:2773   */\n      0x40\n        /* \"#utility.yul\":2759:2768   */\n      dup4\n        /* \"#utility.yul\":2750:2757   */\n      dup6\n        /* \"#utility.yul\":2746:2769   */\n      sub\n        /* \"#utility.yul\":2742:2774   */\n      slt\n        /* \"#utility.yul\":2739:2858   */\n      iszero\n      tag_97\n      jumpi\n        /* \"#utility.yul\":2777:2856   */\n      tag_98\n      tag_46\n      jump\t// in\n    tag_98:\n        /* \"#utility.yul\":2739:2858   */\n    tag_97:\n        /* \"#utility.yul\":2897:2898   */\n      0x00\n        /* \"#utility.yul\":2922:2975   */\n      tag_99\n        /* \"#utility.yul\":2967:2974   */\n      dup6\n        /* \"#utility.yul\":2958:2964   */\n      dup3\n        /* \"#utility.yul\":2947:2956   */\n      dup7\n        /* \"#utility.yul\":2943:2965   */\n      add\n        /* \"#utility.yul\":2922:2975   */\n      tag_51\n      jump\t// in\n    tag_99:\n        /* \"#utility.yul\":2912:2975   */\n      swap3\n      pop\n        /* \"#utility.yul\":2868:2985   */\n      pop\n        /* \"#utility.yul\":3024:3026   */\n      0x20\n        /* \"#utility.yul\":3050:3103   */\n      tag_100\n        /* \"#utility.yul\":3095:3102   */\n      dup6\n        /* \"#utility.yul\":3086:3092   */\n      dup3\n        /* \"#utility.yul\":3075:3084   */\n      dup7\n        /* \"#utility.yul\":3071:3093   */\n      add\n        /* \"#utility.yul\":3050:3103   */\n      tag_51\n      jump\t// in\n    tag_100:\n        /* \"#utility.yul\":3040:3103   */\n      swap2\n      pop\n        /* \"#utility.yul\":2995:3113   */\n      pop\n        /* \"#utility.yul\":2646:3120   */\n      swap3\n      pop\n      swap3\n      swap1\n      pop\n      jump\t// out\n        /* \"#utility.yul\":3126:3242   */\n    tag_58:\n        /* \"#utility.yul\":3196:3217   */\n      tag_102\n        /* \"#utility.yul\":3211:3216   */\n      dup2\n        /* \"#utility.yul\":3196:3217   */\n      tag_56\n      jump\t// in\n    tag_102:\n        /* \"#utility.yul\":3189:3194   */\n      dup2\n        /* \"#utility.yul\":3186:3218   */\n      eq\n        /* \"#utility.yul\":3176:3236   */\n      tag_103\n      jumpi\n        /* \"#utility.yul\":3232:3233   */\n      0x00\n        /* \"#utility.yul\":3229:3230   */\n      dup1\n        /* \"#utility.yul\":3222:3234   */\n      revert\n        /* \"#utility.yul\":3176:3236   */\n    tag_103:\n        /* \"#utility.yul\":3126:3242   */\n      pop\n      jump\t// out\n        /* \"#utility.yul\":3248:3381   */\n    tag_59:\n        /* \"#utility.yul\":3291:3296   */\n      0x00\n        /* \"#utility.yul\":3329:3335   */\n      dup2\n        /* \"#utility.yul\":3316:3336   */\n      calldataload\n        /* \"#utility.yul\":3307:3336   */\n      swap1\n      pop\n        /* \"#utility.yul\":3345:3375   */\n      tag_105\n        /* \"#utility.yul\":3369:3374   */\n      dup2\n        /* \"#utility.yul\":3345:3375   */\n      tag_58\n      jump\t// in\n    tag_105:\n        /* \"#utility.yul\":3248:3381   */\n      swap3\n      swap2\n      pop\n      pop\n      jump\t// out\n        /* \"#utility.yul\":3387:4000   */\n    tag_31:\n        /* \"#utility.yul\":3461:3467   */\n      0x00\n        /* \"#utility.yul\":3469:3475   */\n      dup1\n        /* \"#utility.yul\":3477:3483   */\n      0x00\n        /* \"#utility.yul\":3526:3528   */\n      0x60\n        /* \"#utility.yul\":3514:3523   */\n      dup5\n        /* \"#utility.yul\":3505:3512   */\n      dup7\n        /* \"#utility.yul\":3501:3524   */\n      sub\n        /* \"#utility.yul\":3497:3529   */\n      slt\n        /* \"#utility.yul\":3494:3613   */\n      iszero\n      tag_107\n      jumpi\n        /* \"#utility.yul\":3532:3611   */\n      tag_108\n      tag_46\n      jump\t// in\n    tag_108:\n        /* \"#utility.yul\":3494:3613   */\n    tag_107:\n        /* \"#utility.yul\":3652:3653   */\n      0x00\n        /* \"#utility.yul\":3677:3730   */\n      tag_109\n        /* \"#utility.yul\":3722:3729   */\n      dup7\n        /* \"#utility.yul\":3713:3719   */\n      dup3\n        /* \"#utility.yul\":3702:3711   */\n      dup8\n        /* \"#utility.yul\":3698:3720   */\n      add\n        /* \"#utility.yul\":3677:3730   */\n      tag_51\n      jump\t// in\n    tag_109:\n        /* \"#utility.yul\":3667:3730   */\n      swap4\n      pop\n        /* \"#utility.yul\":3623:3740   */\n      pop\n        /* \"#utility.yul\":3779:3781   */\n      0x20\n        /* \"#utility.yul\":3805:3858   */\n      tag_110\n        /* \"#utility.yul\":3850:3857   */\n      dup7\n        /* \"#utility.yul\":3841:3847   */\n      dup3\n        /* \"#utility.yul\":3830:3839   */\n      dup8\n        /* \"#utility.yul\":3826:3848   */\n      add\n        /* \"#utility.yul\":3805:3858   */\n      tag_51\n      jump\t// in\n    tag_110:\n        /* \"#utility.yul\":3795:3858   */\n      swap3\n      pop\n        /* \"#utility.yul\":3750:3868   */\n      pop\n        /* \"#utility.yul\":3907:3909   */\n      0x40\n        /* \"#utility.yul\":3933:3983   */\n      tag_111\n        /* \"#utility.yul\":3975:3982   */\n      dup7\n        /* \"#utility.yul\":3966:3972   */\n      dup3\n        /* \"#utility.yul\":3955:3964   */\n      dup8\n        /* \"#utility.yul\":3951:3973   */\n      add\n        /* \"#utility.yul\":3933:3983   */\n      tag_59\n      jump\t// in\n    tag_111:\n        /* \"#utility.yul\":3923:3983   */\n      swap2\n      pop\n        /* \"#utility.yul\":3878:3993   */\n      pop\n        /* \"#utility.yul\":3387:4000   */\n      swap3\n      pop\n      swap3\n      pop\n      swap3\n      jump\t// out\n        /* \"#utility.yul\":4006:4474   */\n    tag_38:\n        /* \"#utility.yul\":4071:4077   */\n      0x00\n        /* \"#utility.yul\":4079:4085   */\n      dup1\n        /* \"#utility.yul\":4128:4130   */\n      0x40\n        /* \"#utility.yul\":4116:4125   */\n      dup4\n        /* \"#utility.yul\":4107:4114   */\n      dup6\n        /* \"#utility.yul\":4103:4126   */\n      sub\n        /* \"#utility.yul\":4099:4131   */\n      slt\n        /* \"#utility.yul\":4096:4215   */\n      iszero\n      tag_113\n      jumpi\n        /* \"#utility.yul\":4134:4213   */\n      tag_114\n      tag_46\n      jump\t// in\n    tag_114:\n        /* \"#utility.yul\":4096:4215   */\n    tag_113:\n        /* \"#utility.yul\":4254:4255   */\n      0x00\n        /* \"#utility.yul\":4279:4332   */\n      tag_115\n        /* \"#utility.yul\":4324:4331   */\n      dup6\n        /* \"#utility.yul\":4315:4321   */\n      dup3\n        /* \"#utility.yul\":4304:4313   */\n      dup7\n        /* \"#utility.yul\":4300:4322   */\n      add\n        /* \"#utility.yul\":4279:4332   */\n      tag_55\n      jump\t// in\n    tag_115:\n        /* \"#utility.yul\":4269:4332   */\n      swap3\n      pop\n        /* \"#utility.yul\":4225:4342   */\n      pop\n        /* \"#utility.yul\":4381:4383   */\n      0x20\n        /* \"#utility.yul\":4407:4457   */\n      tag_116\n        /* \"#utility.yul\":4449:4456   */\n      dup6\n        /* \"#utility.yul\":4440:4446   */\n      dup3\n        /* \"#utility.yul\":4429:4438   */\n      dup7\n        /* \"#utility.yul\":4425:4447   */\n      add\n        /* \"#utility.yul\":4407:4457   */\n      tag_59\n      jump\t// in\n    tag_116:\n        /* \"#utility.yul\":4397:4457   */\n      swap2\n      pop\n        /* \"#utility.yul\":4352:4467   */\n      pop\n        /* \"#utility.yul\":4006:4474   */\n      swap3\n      pop\n      swap3\n      swap1\n      pop\n      jump\t// out\n        /* \"#utility.yul\":4480:4660   */\n    tag_60:\n        /* \"#utility.yul\":4528:4605   */\n      0x4e487b7100000000000000000000000000000000000000000000000000000000\n        /* \"#utility.yul\":4525:4526   */\n      0x00\n        /* \"#utility.yul\":4518:4606   */\n      mstore\n        /* \"#utility.yul\":4625:4629   */\n      0x11\n        /* \"#utility.yul\":4622:4623   */\n      0x04\n        /* \"#utility.yul\":4615:4630   */\n      mstore\n        /* \"#utility.yul\":4649:4653   */\n      0x24\n        /* \"#utility.yul\":4646:4647   */\n      0x00\n        /* \"#utility.yul\":4639:4654   */\n      revert\n        /* \"#utility.yul\":4666:4857   */\n    tag_43:\n        /* \"#utility.yul\":4706:4709   */\n      0x00\n        /* \"#utility.yul\":4725:4745   */\n      tag_119\n        /* \"#utility.yul\":4743:4744   */\n      dup3\n        /* \"#utility.yul\":4725:4745   */\n      tag_52\n      jump\t// in\n    tag_119:\n        /* \"#utility.yul\":4720:4745   */\n      swap2\n      pop\n        /* \"#utility.yul\":4759:4779   */\n      tag_120\n        /* \"#utility.yul\":4777:4778   */\n      dup4\n        /* \"#utility.yul\":4759:4779   */\n      tag_52\n      jump\t// in\n    tag_120:\n        /* \"#utility.yul\":4754:4779   */\n      swap3\n      pop\n        /* \"#utility.yul\":4802:4803   */\n      dup3\n        /* \"#utility.yul\":4799:4800   */\n      dup3\n        /* \"#utility.yul\":4795:4804   */\n      add\n        /* \"#utility.yul\":4788:4804   */\n      swap1\n      pop\n        /* \"#utility.yul\":4823:4826   */\n      dup1\n        /* \"#utility.yul\":4820:4821   */\n      dup3\n        /* \"#utility.yul\":4817:4827   */\n      gt\n        /* \"#utility.yul\":4814:4850   */\n      iszero\n      tag_121\n      jumpi\n        /* \"#utility.yul\":4830:4848   */\n      tag_122\n      tag_60\n      jump\t// in\n    tag_122:\n        /* \"#utility.yul\":4814:4850   */\n    tag_121:\n        /* \"#utility.yul\":4666:4857   */\n      swap3\n      swap2\n      pop\n      pop\n      jump\t// out\n\n    auxdata: 0xa264697066735822122077e0f8e0bf6364d8ce2ff4d1c6cb933685dd346252ee06a4ce6ea849f780766064736f6c63430008160033\n}\n",
				"bytecode": {
					"linkReferences": {},
					"object": "608060405234801561000f575f80fd5b506105a38061001d5f395ff3fe608060405260043610610054575f3560e01c806379fc3682146100585780637c66884414610094578063bbf11e70146100d0578063cea8692e1461010c578063ed50d7c914610134578063ffd4c0241461013e575b5f80fd5b348015610063575f80fd5b5061007e60048036038101906100799190610333565b610166565b60405161008b9190610376565b60405180910390f35b34801561009f575f80fd5b506100ba60048036038101906100b591906103b9565b61017b565b6040516100c791906103fe565b60405180910390f35b3480156100db575f80fd5b506100f660048036038101906100f19190610417565b610197565b60405161010391906103fe565b60405180910390f35b348015610117575f80fd5b50610132600480360381019061012d919061047f565b6101c1565b005b61013c610255565b005b348015610149575f80fd5b50610164600480360381019061015f91906104cf565b6102aa565b005b6001602052805f5260405f205f915090505481565b5f602052805f5260405f205f915054906101000a900460ff1681565b6002602052815f5260405f20602052805f5260405f205f915091509054906101000a900460ff1681565b8060025f8573ffffffffffffffffffffffffffffffffffffffff1673ffffffffffffffffffffffffffffffffffffffff1681526020019081526020015f205f8473ffffffffffffffffffffffffffffffffffffffff1673ffffffffffffffffffffffffffffffffffffffff1681526020019081526020015f205f6101000a81548160ff021916908315150217905550505050565b3460015f3373ffffffffffffffffffffffffffffffffffffffff1673ffffffffffffffffffffffffffffffffffffffff1681526020019081526020015f205f8282546102a1919061053a565b92505081905550565b805f808481526020019081526020015f205f6101000a81548160ff0219169083151502179055505050565b5f80fd5b5f73ffffffffffffffffffffffffffffffffffffffff82169050919050565b5f610302826102d9565b9050919050565b610312816102f8565b811461031c575f80fd5b50565b5f8135905061032d81610309565b92915050565b5f60208284031215610348576103476102d5565b5b5f6103558482850161031f565b91505092915050565b5f819050919050565b6103708161035e565b82525050565b5f6020820190506103895f830184610367565b92915050565b6103988161035e565b81146103a2575f80fd5b50565b5f813590506103b38161038f565b92915050565b5f602082840312156103ce576103cd6102d5565b5b5f6103db848285016103a5565b91505092915050565b5f8115159050919050565b6103f8816103e4565b82525050565b5f6020820190506104115f8301846103ef565b92915050565b5f806040838503121561042d5761042c6102d5565b5b5f61043a8582860161031f565b925050602061044b8582860161031f565b9150509250929050565b61045e816103e4565b8114610468575f80fd5b50565b5f8135905061047981610455565b92915050565b5f805f60608486031215610496576104956102d5565b5b5f6104a38682870161031f565b93505060206104b48682870161031f565b92505060406104c58682870161046b565b9150509250925092565b5f80604083850312156104e5576104e46102d5565b5b5f6104f2858286016103a5565b92505060206105038582860161046b565b9150509250929050565b7f4e487b71000000000000000000000000000000000000000000000000000000005f52601160045260245ffd5b5f6105448261035e565b915061054f8361035e565b92508282019050808211156105675761056661050d565b5b9291505056fea264697066735822122077e0f8e0bf6364d8ce2ff4d1c6cb933685dd346252ee06a4ce6ea849f780766064736f6c63430008160033",
					"opcodes": "PUSH1 0x80 PUSH1 0x40 MSTORE CALLVALUE DUP1 ISZERO PUSH2 0xF JUMPI PUSH0 DUP1 REVERT JUMPDEST POP PUSH2 0x5A3 DUP1 PUSH2 0x1D PUSH0 CODECOPY PUSH0 RETURN INVALID PUSH1 0x80 PUSH1 0x40 MSTORE PUSH1 0x4 CALLDATASIZE LT PUSH2 0x54 JUMPI PUSH0 CALLDATALOAD PUSH1 0xE0 SHR DUP1 PUSH4 0x79FC3682 EQ PUSH2 0x58 JUMPI DUP1 PUSH4 0x7C668844 EQ PUSH2 0x94 JUMPI DUP1 PUSH4 0xBBF11E70 EQ PUSH2 0xD0 JUMPI DUP1 PUSH4 0xCEA8692E EQ PUSH2 0x10C JUMPI DUP1 PUSH4 0xED50D7C9 EQ PUSH2 0x134 JUMPI DUP1 PUSH4 0xFFD4C024 EQ PUSH2 0x13E JUMPI JUMPDEST PUSH0 DUP1 REVERT JUMPDEST CALLVALUE DUP1 ISZERO PUSH2 0x63 JUMPI PUSH0 DUP1 REVERT JUMPDEST POP PUSH2 0x7E PUSH1 0x4 DUP1 CALLDATASIZE SUB DUP2 ADD SWAP1 PUSH2 0x79 SWAP2 SWAP1 PUSH2 0x333 JUMP JUMPDEST PUSH2 0x166 JUMP JUMPDEST PUSH1 0x40 MLOAD PUSH2 0x8B SWAP2 SWAP1 PUSH2 0x376 JUMP JUMPDEST PUSH1 0x40 MLOAD DUP1 SWAP2 SUB SWAP1 RETURN JUMPDEST CALLVALUE DUP1 ISZERO PUSH2 0x9F JUMPI PUSH0 DUP1 REVERT JUMPDEST POP PUSH2 0xBA PUSH1 0x4 DUP1 CALLDATASIZE SUB DUP2 ADD SWAP1 PUSH2 0xB5 SWAP2 SWAP1 PUSH2 0x3B9 JUMP JUMPDEST PUSH2 0x17B JUMP JUMPDEST PUSH1 0x40 MLOAD PUSH2 0xC7 SWAP2 SWAP1 PUSH2 0x3FE JUMP JUMPDEST PUSH1 0x40 MLOAD DUP1 SWAP2 SUB SWAP1 RETURN JUMPDEST CALLVALUE DUP1 ISZERO PUSH2 0xDB JUMPI PUSH0 DUP1 REVERT JUMPDEST POP PUSH2 0xF6 PUSH1 0x4 DUP1 CALLDATASIZE SUB DUP2 ADD SWAP1 PUSH2 0xF1 SWAP2 SWAP1 PUSH2 0x417 JUMP JUMPDEST PUSH2 0x197 JUMP JUMPDEST PUSH1 0x40 MLOAD PUSH2 0x103 SWAP2 SWAP1 PUSH2 0x3FE JUMP JUMPDEST PUSH1 0x40 MLOAD DUP1 SWAP2 SUB SWAP1 RETURN JUMPDEST CALLVALUE DUP1 ISZERO PUSH2 0x117 JUMPI PUSH0 DUP1 REVERT JUMPDEST POP PUSH2 0x132 PUSH1 0x4 DUP1 CALLDATASIZE SUB DUP2 ADD SWAP1 PUSH2 0x12D SWAP2 SWAP1 PUSH2 0x47F JUMP JUMPDEST PUSH2 0x1C1 JUMP JUMPDEST STOP JUMPDEST PUSH2 0x13C PUSH2 0x255 JUMP JUMPDEST STOP JUMPDEST CALLVALUE DUP1 ISZERO PUSH2 0x149 JUMPI PUSH0 DUP1 REVERT JUMPDEST POP PUSH2 0x164 PUSH1 0x4 DUP1 CALLDATASIZE SUB DUP2 ADD SWAP1 PUSH2 0x15F SWAP2 SWAP1 PUSH2 0x4CF JUMP JUMPDEST PUSH2 0x2AA JUMP JUMPDEST STOP JUMPDEST PUSH1 0x1 PUSH1 0x20 MSTORE DUP1 PUSH0 MSTORE PUSH1 0x40 PUSH0 KECCAK256 PUSH0 SWAP2 POP SWAP1 POP SLOAD DUP2 JUMP JUMPDEST PUSH0 PUSH1 0x20 MSTORE DUP1 PUSH0 MSTORE PUSH1 0x40 PUSH0 KECCAK256 PUSH0 SWAP2 POP SLOAD SWAP1 PUSH2 0x100 EXP SWAP1 DIV PUSH1 0xFF AND DUP2 JUMP JUMPDEST PUSH1 0x2 PUSH1 0x20 MSTORE DUP2 PUSH0 MSTORE PUSH1 0x40 PUSH0 KECCAK256 PUSH1 0x20 MSTORE DUP1 PUSH0 MSTORE PUSH1 0x40 PUSH0 KECCAK256 PUSH0 SWAP2 POP SWAP2 POP SWAP1 SLOAD SWAP1 PUSH2 0x100 EXP SWAP1 DIV PUSH1 0xFF AND DUP2 JUMP JUMPDEST DUP1 PUSH1 0x2 PUSH0 DUP6 PUSH20 0xFFFFFFFFFFFFFFFFFFFFFFFFFFFFFFFFFFFFFFFF AND PUSH20 0xFFFFFFFFFFFFFFFFFFFFFFFFFFFFFFFFFFFFFFFF AND DUP2 MSTORE PUSH1 0x20 ADD SWAP1 DUP2 MSTORE PUSH1 0x20 ADD PUSH0 KECCAK256 PUSH0 DUP5 PUSH20 0xFFFFFFFFFFFFFFFFFFFFFFFFFFFFFFFFFFFFFFFF AND PUSH20 0xFFFFFFFFFFFFFFFFFFFFFFFFFFFFFFFFFFFFFFFF AND DUP2 MSTORE PUSH1 0x20 ADD SWAP1 DUP2 MSTORE PUSH1 0x20 ADD PUSH0 KECCAK256 PUSH0 PUSH2 0x100 EXP DUP2 SLOAD DUP2 PUSH1 0xFF MUL NOT AND SWAP1 DUP4 ISZERO ISZERO MUL OR SWAP1 SSTORE POP POP POP POP JUMP JUMPDEST CALLVALUE PUSH1 0x1 PUSH0 CALLER PUSH20 0xFFFFFFFFFFFFFFFFFFFFFFFFFFFFFFFFFFFFFFFF AND PUSH20 0xFFFFFFFFFFFFFFFFFFFFFFFFFFFFFFFFFFFFFFFF AND DUP2 MSTORE PUSH1 0x20 ADD SWAP1 DUP2 MSTORE PUSH1 0x20 ADD PUSH0 KECCAK256 PUSH0 DUP3 DUP3 SLOAD PUSH2 0x2A1 SWAP2 SWAP1 PUSH2 0x53A JUMP JUMPDEST SWAP3 POP POP DUP2 SWAP1 SSTORE POP JUMP JUMPDEST DUP1 PUSH0 DUP1 DUP5 DUP2 MSTORE PUSH1 0x20 ADD SWAP1 DUP2 MSTORE PUSH1 0x20 ADD PUSH0 KECCAK256 PUSH0 PUSH2 0x100 EXP DUP2 SLOAD DUP2 PUSH1 0xFF MUL NOT AND SWAP1 DUP4 ISZERO ISZERO MUL OR SWAP1 SSTORE POP POP POP JUMP JUMPDEST PUSH0 DUP1 REVERT JUMPDEST PUSH0 PUSH20 0xFFFFFFFFFFFFFFFFFFFFFFFFFFFFFFFFFFFFFFFF DUP3 AND SWAP1 POP SWAP2 SWAP1 POP JUMP JUMPDEST PUSH0 PUSH2 0x302 DUP3 PUSH2 0x2D9 JUMP JUMPDEST SWAP1 POP SWAP2 SWAP1 POP JUMP JUMPDEST PUSH2 0x312 DUP2 PUSH2 0x2F8 JUMP JUMPDEST DUP2 EQ PUSH2 0x31C JUMPI PUSH0 DUP1 REVERT JUMPDEST POP JUMP JUMPDEST PUSH0 DUP2 CALLDATALOAD SWAP1 POP PUSH2 0x32D DUP2 PUSH2 0x309 JUMP JUMPDEST SWAP3 SWAP2 POP POP JUMP JUMPDEST PUSH0 PUSH1 0x20 DUP3 DUP5 SUB SLT ISZERO PUSH2 0x348 JUMPI PUSH2 0x347 PUSH2 0x2D5 JUMP JUMPDEST JUMPDEST PUSH0 PUSH2 0x355 DUP5 DUP3 DUP6 ADD PUSH2 0x31F JUMP JUMPDEST SWAP2 POP POP SWAP3 SWAP2 POP POP JUMP JUMPDEST PUSH0 DUP2 SWAP1 POP SWAP2 SWAP1 POP JUMP JUMPDEST PUSH2 0x370 DUP2 PUSH2 0x35E JUMP JUMPDEST DUP3 MSTORE POP POP JUMP JUMPDEST PUSH0 PUSH1 0x20 DUP3 ADD SWAP1 POP PUSH2 0x389 PUSH0 DUP4 ADD DUP5 PUSH2 0x367 JUMP JUMPDEST SWAP3 SWAP2 POP POP JUMP JUMPDEST PUSH2 0x398 DUP2 PUSH2 0x35E JUMP JUMPDEST DUP2 EQ PUSH2 0x3A2 JUMPI PUSH0 DUP1 REVERT JUMPDEST POP JUMP JUMPDEST PUSH0 DUP2 CALLDATALOAD SWAP1 POP PUSH2 0x3B3 DUP2 PUSH2 0x38F JUMP JUMPDEST SWAP3 SWAP2 POP POP JUMP JUMPDEST PUSH0 PUSH1 0x20 DUP3 DUP5 SUB SLT ISZERO PUSH2 0x3CE JUMPI PUSH2 0x3CD PUSH2 0x2D5 JUMP JUMPDEST JUMPDEST PUSH0 PUSH2 0x3DB DUP5 DUP3 DUP6 ADD PUSH2 0x3A5 JUMP JUMPDEST SWAP2 POP POP SWAP3 SWAP2 POP POP JUMP JUMPDEST PUSH0 DUP2 ISZERO ISZERO SWAP1 POP SWAP2 SWAP1 POP JUMP JUMPDEST PUSH2 0x3F8 DUP2 PUSH2 0x3E4 JUMP JUMPDEST DUP3 MSTORE POP POP JUMP JUMPDEST PUSH0 PUSH1 0x20 DUP3 ADD SWAP1 POP PUSH2 0x411 PUSH0 DUP4 ADD DUP5 PUSH2 0x3EF JUMP JUMPDEST SWAP3 SWAP2 POP POP JUMP JUMPDEST PUSH0 DUP1 PUSH1 0x40 DUP4 DUP6 SUB SLT ISZERO PUSH2 0x42D JUMPI PUSH2 0x42C PUSH2 0x2D5 JUMP JUMPDEST JUMPDEST PUSH0 PUSH2 0x43A DUP6 DUP3 DUP7 ADD PUSH2 0x31F JUMP JUMPDEST SWAP3 POP POP PUSH1 0x20 PUSH2 0x44B DUP6 DUP3 DUP7 ADD PUSH2 0x31F JUMP JUMPDEST SWAP2 POP POP SWAP3 POP SWAP3 SWAP1 POP JUMP JUMPDEST PUSH2 0x45E DUP2 PUSH2 0x3E4 JUMP JUMPDEST DUP2 EQ PUSH2 0x468 JUMPI PUSH0 DUP1 REVERT JUMPDEST POP JUMP JUMPDEST PUSH0 DUP2 CALLDATALOAD SWAP1 POP PUSH2 0x479 DUP2 PUSH2 0x455 JUMP JUMPDEST SWAP3 SWAP2 POP POP JUMP JUMPDEST PUSH0 DUP1 PUSH0 PUSH1 0x60 DUP5 DUP7 SUB SLT ISZERO PUSH2 0x496 JUMPI PUSH2 0x495 PUSH2 0x2D5 JUMP JUMPDEST JUMPDEST PUSH0 PUSH2 0x4A3 DUP7 DUP3 DUP8 ADD PUSH2 0x31F JUMP JUMPDEST SWAP4 POP POP PUSH1 0x20 PUSH2 0x4B4 DUP7 DUP3 DUP8 ADD PUSH2 0x31F JUMP JUMPDEST SWAP3 POP POP PUSH1 0x40 PUSH2 0x4C5 DUP7 DUP3 DUP8 ADD PUSH2 0x46B JUMP JUMPDEST SWAP2 POP POP SWAP3 POP SWAP3 POP SWAP3 JUMP JUMPDEST PUSH0 DUP1 PUSH1 0x40 DUP4 DUP6 SUB SLT ISZERO PUSH2 0x4E5 JUMPI PUSH2 0x4E4 PUSH2 0x2D5 JUMP JUMPDEST JUMPDEST PUSH0 PUSH2 0x4F2 DUP6 DUP3 DUP7 ADD PUSH2 0x3A5 JUMP JUMPDEST SWAP3 POP POP PUSH1 0x20 PUSH2 0x503 DUP6 DUP3 DUP7 ADD PUSH2 0x46B JUMP JUMPDEST SWAP2 POP POP SWAP3 POP SWAP3 SWAP1 POP JUMP JUMPDEST PUSH32 0x4E487B7100000000000000000000000000000000000000000000000000000000 PUSH0 MSTORE PUSH1 0x11 PUSH1 0x4 MSTORE PUSH1 0x24 PUSH0 REVERT JUMPDEST PUSH0 PUSH2 0x544 DUP3 PUSH2 0x35E JUMP JUMPDEST SWAP2 POP PUSH2 0x54F DUP4 PUSH2 0x35E JUMP JUMPDEST SWAP3 POP DUP3 DUP3 ADD SWAP1 POP DUP1 DUP3 GT ISZERO PUSH2 0x567 JUMPI PUSH2 0x566 PUSH2 0x50D JUMP JUMPDEST JUMPDEST SWAP3 SWAP2 POP POP JUMP INVALID LOG2 PUSH5 0x6970667358 0x22 SLT KECCAK256 PUSH24 0xE0F8E0BF6364D8CE2FF4D1C6CB933685DD346252EE06A4CE PUSH15 0xA849F780766064736F6C6343000816 STOP CALLER "
				},
				"gasEstimates": {
					"creation": {
						"codeDepositCost": "288600",
						"executionCost": "329",
						"totalCost": "288929"
					},
					"external": {
						"addFundsToMyAddress()": "infinite",
						"addressBalances(address)": "2780",
						"addressFriendship(address,address)": "infinite",
						"myMapping(uint256)": "2784",
						"setAddressFriendship(address,address,bool)": "infinite",
						"setMyMapping(uint256,bool)": "25008"
					}
				},
				"methodIdentifiers": {
					"addFundsToMyAddress()": "ed50d7c9",
					"addressBalances(address)": "79fc3682",
					"addressFriendship(address,address)": "bbf11e70",
					"myMapping(uint256)": "7c668844",
					"setAddressFriendship(address,address,bool)": "cea8692e",
					"setMyMapping(uint256,bool)": "ffd4c024"
				}
			},
			"storageLayout": {
				"storage": [
					{
						"astId": 5,
						"contract": "contracts/MappingContract.sol:MappingContract",
						"label": "myMapping",
						"offset": 0,
						"slot": "0",
						"type": "t_mapping(t_uint256,t_bool)"
					},
					{
						"astId": 9,
						"contract": "contracts/MappingContract.sol:MappingContract",
						"label": "addressBalances",
						"offset": 0,
						"slot": "1",
						"type": "t_mapping(t_address,t_uint256)"
					},
					{
						"astId": 15,
						"contract": "contracts/MappingContract.sol:MappingContract",
						"label": "addressFriendship",
						"offset": 0,
						"slot": "2",
						"type": "t_mapping(t_address,t_mapping(t_address,t_bool))"
					}
				],
				"types": {
					"t_address": {
						"encoding": "inplace",
						"label": "address",
						"numberOfBytes": "20"
					},
					"t_bool": {
						"encoding": "inplace",
						"label": "bool",
						"numberOfBytes": "1"
					},
					"t_mapping(t_address,t_bool)": {
						"encoding": "mapping",
						"key": "t_address",
						"label": "mapping(address => bool)",
						"numberOfBytes": "32",
						"value": "t_bool"
					},
					"t_mapping(t_address,t_mapping(t_address,t_bool))": {
						"encoding": "mapping",
						"key": "t_address",
						"label": "mapping(address => mapping(address => bool))",
						"numberOfBytes": "32",
						"value": "t_mapping(t_address,t_bool)"
					},
					"t_mapping(t_address,t_uint256)": {
						"encoding": "mapping",
						"key": "t_address",
						"label": "mapping(address => uint256)",
						"numberOfBytes": "32",
						"value": "t_uint256"
					},
					"t_mapping(t_uint256,t_bool)": {
						"encoding": "mapping",
						"key": "t_uint256",
						"label": "mapping(uint256 => bool)",
						"numberOfBytes": "32",
						"value": "t_bool"
					},
					"t_uint256": {
						"encoding": "inplace",
						"label": "uint256",
						"numberOfBytes": "32"
					}
				}
			},
			"userdoc": {
				"kind": "user",
				"methods": {},
				"version": 1
			}
		}
	}
}